:1000000012C02CC02BC057C10AC128C027C026C0AF
:1000100025C024C023C022C021C020C07AC11EC078
:100020001DC01CC01BC011241FBECFE5D4E0DEBF25
:10003000CDBF10E0A0E6B0E0EEEDF4E002C0059028
:100040000D92A438B107D9F710E0A4E8B0E001C0E0
:100050001D92A73AB107E1F71BD03FC2D1CFF89468
:100060008A9A929A85E38A95F1F7000092988A9885
:10007000829BFECF20E030E006C08AE98A95F1F746
:1000800000C02F5F3F4F8299F8CF7894C90108953F
:10009000CF93DF9385D0E3DFEC0180E690E0A8D139
:1000A000CE01B8D1F8CF24B135B1932F80E030E044
:1000B000282B392B8091840090918500AC01440F4E
:1000C000551FFA01E657FF4F3183208360919A0054
:1000D00070919B0061157105E1F182309105CCF5BD
:1000E000632F7727FA01EA57FF4FA081B1819B0167
:1000F0002A1B3B0B35952795359527952A0F3B1FD6
:1001000031832083DA01A758BF4F4D915C9111973D
:10011000621B730B649FF001659FF00D749FF00DDF
:100120001124E330F10574F1E1E0F0E0E827F9276C
:10013000EE0FFF1FE456FF4F208131812F5F3F4FAD
:1001400031832083509541955F4F11965C934E9378
:1001500019C084309105B1F44091960050919700F8
:100160004115510549F441E050E06CEF2038360765
:1001700028F040E050E002C041E050E0509397008A
:1001800040939600FC01E358FF4F208127B9019668
:1001900066E070E05FD190938500809384000895BD
:1001A00089E785BD89B7806489BF81E983BD10BCBB
:1001B00083E389B988E18AB986E880BD8FE387BB8C
:1001C0008CEF81BB81EA8FBD82E08EBD80E0DBD009
:1001D00081E061E0E1D080E060E0DED081E0C0D08D
:1001E000939A80E260E2F1D080E060E0E7D0109284
:1001F0009B0010929A001092A2001092A10083E539
:1002000090E0909399008093980084B38C7F84BB96
:10021000979A81E687B98FEE86B9789408951F92F0
:100220000F920FB60F9211242F933F934F935F932A
:100230006F937F938F939F93AF93BF93EF93FF93AE
:1002400084B58B5D84BD8091A0008F5F8093A000FA
:100250008091A000882399F48091A3009091A4003C
:10026000A091A500B091A6000196A11DB11D80939B
:10027000A3009093A400A093A500B093A600809142
:10028000A1009091A200009729F0E091A100F091C7
:10029000A2000995FF91EF91BF91AF919F918F912E
:1002A0007F916F915F914F913F912F910F900FBE72
:1002B0000F901F9018951F920F920FB60F92112456
:1002C0008F939F93AF93BF938091A0008F5F809394
:1002D000A0008091A000882399F48091A3009091C0
:1002E000A400A091A500B091A6000196A11DB11D8A
:1002F0008093A3009093A400A093A500B093A600C0
:10030000BF91AF919F918F910F900FBE0F901F9053
:1003100018951F920F920FB60F9211242F933F93AF
:100320004F935F936F937F938F939F93AF93BF93FD
:10033000EF93FF93E0919800F09199000995FF9158
:10034000EF91BF91AF919F918F917F916F915F914D
:100350004F913F912F910F900FBE0F901F901895C6
:10036000882311F4C09803C0813019F4C09A929880
:100370000895833019F4C09A929A0895823011F446
:10038000C098929A089592B38295880F880F807CC6
:100390009F7B892B82BB0895882311F4662349F043
:1003A000979894B3936094BB95B3936095BB88235F
:1003B00009F4A998662309F4A898089590E09BBDD4
:1003C0008ABD70E079BD68BD089592B39F7C982B7B
:1003D00092BB88B38F7C682B68BB089598E09AB96C
:1003E0005E9A5D9BFECF8CB95E9BFECF1AB80895D6
:1003F0001F93CF93DF93EC0110E002C01F5FEEDF8D
:10040000FE01E10FF11D80818823C1F7DF91CF91BB
:100410001F9108950F931F93DF93CF93CDB7DEB74E
:1004200027970FB6F894DEBF0FBECDBF8E010F5FCA
:100430001F4FB8014AE050E021D0C801D9DF27960C
:100440000FB6F894DEBF0FBECDBFCF91DF911F91E5
:100450000F910895AA1BBB1B51E107C0AA1FBB1F28
:10046000A617B70710F0A61BB70B881F991F5A9540
:10047000A9F780959095BC01CD010895FB019F01DE
:10048000E8944230BCF04532ACF44A3029F497FB92
:100490001EF4909581959F4F642F7727DBDF805D59
:1004A0008A330CF0895D8193CB010097A9F716F48C
:1004B0005DE251931082C90100C0DC01FC01672F8D
:1004C00071917723E1F7329704C07C916D9370832B
:0E04D0006291AE17BF07C8F30895F894FFCFEE
:1004DE000D0A20756C747261736F6E6963206469A6
:1004EE007374616E63653A200001000100626364FB
:0404FE00E560610054
:00000001FF
