:1000000012C02BC042C553C028C027C026C025C07F
:1000100024C023C022C021C020C01FC089C41DC06D
:100020001CC01BC01AC011241FBECFE5D4E0DEBF28
:10003000CDBF10E0A0E6B0E0EEEBF4E102C0059029
:100040000D92AC3CB107D9F710E0ACECB0E001C0C8
:100050001D92A43EB107E1F701C0D2CFCBE5D4E0B9
:10006000DEBFCDBFFF24EF2C33D000E010E0CE0187
:100070000196BAD089819A81883C910528F421E0C3
:10008000E21611F4F20EEE248855924010F081E051
:10009000E82E0F5F1F4F8FE10F3F180740F32AE054
:1000A0002F1508F4B3D364D380E090E007CA1F9201
:1000B0000F920FB60F9211248F938091D8008F5F0B
:1000C0008093D8008F910F900FBE0F901F901895BE
:1000D00089E185BD8EE683BD89B7806889BF1BB87D
:1000E0001AB896E890BD8FEC89B98FE387BB84EF8F
:1000F00081BB81EA8FBD82E08EBD96B9979880E082
:1001000034D061E0862F3CD060E0862F39D081E08A
:100110001AD060E2862F0DD060E0862F02D078944E
:10012000089599279BBD8ABD862F992799BD88BDC3
:100130000895982F82B38F7C892B82BB88B38F7CE4
:10014000862B88BB0895882311F4C098929881303B
:1001500011F4C09A9298833011F4C09A929A823026
:1001600011F4C098929A0895089522B32F7B99278D
:1001700036E0880F991F3A95E1F7282B22BB0895A6
:10018000982F882311F4662339F0979884B38360FD
:1001900084BB85B3836085BB992309F4A998662342
:1001A00009F4A89808950895FC0183E487B9369A64
:1001B000349BFECF349A24B185B19927982F882794
:1001C000820F911D8083918382E487B9369A349B94
:1001D000FECF349A24B185B19927982F8827820FB2
:1001E000911D828393830895FC0184B38C7F84BB2B
:1001F000979A81E487B9369A349BFECF349A24B11A
:1002000085B19927982F8827820F911D808391832C
:1002100080E487B9369A349BFECF349A24B185B1F5
:100220009927982F8827820F911D828393830895A1
:10023000AC0120E088E08AB9662359F05D9B07C0D5
:10024000FA01E20FF11D80818CB92F5F61506623A6
:10025000A9F75E9BFECF20E060E06E5F6E3FE8F3A3
:100260002F5F2E3FC8F30895DC0170E020E030E0FE
:1002700080E18AB94115510501F17617C0F4C90131
:1002800021E030E08417950790F45F9B08C0FD01E2
:10029000E70FF11D8CB180837F5F20E030E076179F
:1002A00030F4C9012F5F3F4F8417950770F3421751
:1002B000530778F484E58C930895761750F45F9B88
:1002C00006C0FD01E70FF11D8CB180837F5F7617BB
:1002D000B0F30895CF93DF938B9A939A84E487B910
:1002E000C0E0D0E0649685E0C030D807D8F3369AF5
:1002F000349BFECF349A24B185B19927D82FCC27CF
:10030000C20FD11D9398CE01AA2797FDA095BA2FB1
:10031000BC01CD0139D8D7FF05C020E030E040E86E
:1003200057E485D79B01AC0160E070E080E894E47D
:10033000C8D7DC01CB0120E030E040E85FE3BC013E
:10034000CD0174D7DC01CB0120E030E04CE752E472
:10035000BC01CD0165D8DC01CB0120E030E040E0FC
:100360005FE3BC01CD0163D7DC01CB01BC01CD0152
:10037000EED7DC01CB019927DF91CF9108959398B7
:100380008B9885B7837F85BF8BB780688BBF0895B7
:100390008BB78F778BBF0895982F1092D8008091DC
:1003A000D8008917E0F308951F93CF93DF93CDB75B
:1003B000DEB721970FB6F894DEBF0FBECDBF10E0B9
:1003C00081E0C1DE4EEF5FEF61E0CE0101964CDFD0
:1003D00082E0B9DE8981843511F08F5F898361E025
:1003E000CE01019625DF1F5F1E3F50F321960FB609
:1003F000F894DEBF0FBECDBFDF91CF911F9108955E
:100400000F931F93CF93DF9360E080E292DE62DF71
:10041000182F80E098DE80E0A8DE60E0862FB0DE56
:1004200060E0862F7EDE00E0C12FDD27C0FF03C025
:10043000602F88EC76DEC1FF04C061E0802FA0DE73
:1004400001E0C2FF03C0602F81E09ADEC3FF02C05B
:1004500081E08BDEC4FD929AC5FDC09ADF91CF91F9
:100460001F910F9108950F931F93CF93DF93CDB7F3
:10047000DEB724970FB6F894DEBF0FBECDBF00E005
:1004800010E0CE01019690DE89819A8181599140D8
:1004900008F001E08B819C818159914008F011E0C6
:1004A000612F802F6DDE24960FB6F894DEBF0FBE4D
:1004B000CDBFDF91CF911F910F910895CF93DF931F
:1004C000CDB7DEB724970FB6F894DEBF0FBECDBF11
:1004D000CE01019689DE80E036DE89819A818050E6
:1004E000924010F481E02FDE8B819C8180509240FD
:1004F00010F482E028DE24960FB6F894DEBF0FBE1B
:10050000CDBFDF91CF910895CF93DF9360E280E07C
:1005100010DEC0E0D0E080E090E001962FE18F3F58
:100520009207D8F36C2F80E0FCDD2196CF3FD105F8
:1005300090F3CFEFD0E080E090E001962FE18F3F85
:100540009207D8F36C2F80E0ECDD2197A1F760E1F2
:1005500080E0EFDD80E090E001962FE18F3F920791
:10056000D8F36C2F80E0DDDD2196CF3FD10590F3ED
:10057000CFEFD0E080E090E001962FE18F3F92072F
:10058000D8F36C2F80E0CDDD2197A1F7DF91CF91DB
:100590000895CF93DF9360E080E2CBDDC0E0D0E050
:1005A00080E090E001962FE18F3F9207D8F360E062
:1005B0008C2FB7DD2196CF3FD10590F3CFEFD0E060
:1005C00080E090E001962FE18F3F9207D8F360E042
:1005D0008C2FA7DD2197A1F760E080E1AADD80E004
:1005E00090E001962FE18F3F9207D8F360E08C2FC7
:1005F00098DD2196CF3FD10590F3CFEFD0E080E09A
:1006000090E001962FE18F3F9207D8F360E08C2FA6
:1006100088DD2197A1F7DF91CF910895CF93DF93E4
:1006200060E2862F86DDC0E0D0E080E090E00196B9
:100630002FE18F3F9207D8F36C2F8C2F72DD21961C
:10064000CF3FD10590F3CFEFD0E080E090E001966E
:100650002FE18F3F9207D8F36C2F8C2F62DD21970B
:10066000A1F760E1862F65DD80E090E001962FE143
:100670008F3F9207D8F36C2F8C2F53DD2196CF3FFD
:10068000D10590F3CFEFD0E080E090E001962FE12C
:100690008F3F9207D8F36C2F8C2F43DD2197A1F762
:1006A00060E0862F3EDDDF91CF91089572DF2CDF71
:1006B000B5DF0895CF93DF9381E045DD60E0862FBD
:1006C0005FDD80E052DDC0E0D0E08FEF65DE219697
:1006D00083E0CA34D807C8F382E035DDC0E0D0E05B
:1006E0008FEF5ADE219683E0CA34D807C8F380E042
:1006F0002ADD81E03ADDC0E0D0E08FEF4DDE2196CB
:1007000083E0CA34D807C8F360E081E039DD80E0D7
:100710002CDDC0E0D0E08FEF3FDE219683E0CA34CD
:10072000D807C8F361E080E02BDDC0E0D0E08FEFB8
:1007300033DE219683E0CA34D807C8F361E0862F00
:100740001FDD83E000DD81E010DDC0E0D0E08FEF51
:1007500023DE219683E0CA34D807C8F360E0862FF1
:100760000FDD80E0F0DC80E000DDDF91CF910895C7
:10077000CF93DF93ADDC67E180E690E059DD6AE07E
:1007800088E790E055DD96DF6BE083E890E050DD90
:1007900081E0D9DCC0E0D0E066DE21968EEFC0308B
:1007A000D807D0F380E0CFDC6DE08FE890E040DD4B
:1007B000C0E0D0E025DE21968EEFC030D807D0F320
:1007C00087DC80E0C0DC60E18DE990E031DD81E034
:1007D000CCDCC0E0D0E072DE21968FEFC03FD807BE
:1007E000D0F380E0B0DC80E0C0DC6CE08EEA90E02A
:1007F0001FDD61E0862FC4DC59DF60E0862FC0DC9E
:100800006DE08BEB90E014DDCFDDB5CFCF9360DCF6
:1008100061DDC82F813009F432D0C23009F426D10D
:10082000C43009F439D2C83099F7BFD3F1CF8091E1
:10083000DB009091DC0001969093DC008093DB005C
:100840008F3F910534F08FEF90E09093DC00809320
:10085000DB00089508958091D9009091DA00019607
:100860009093DA008093D9008F3F910534F08FEF99
:1008700090E09093DA008093D90008950895CF9383
:1008800027DC81E072DCC0E08FED90E08DDCCF5F93
:10089000CF3FD1F78FED90E087DC8091DF00909122
:1008A000E0002091E1003091E200821B930B9093D5
:1008B000DE008093DD008FE890E09093DA00809373
:1008C000D9009093DC008093DB008FED90E06CDC2E
:1008D0002091DF003091E0008091E1009091E200F2
:1008E000281B390B8091DD009091DE00281B390B0D
:1008F0002530310524F081E026DC99DF13C02C5F20
:100900003F4F24F482E01FDCA6DF0CC080E01BDC3C
:100910008FE890E09093DA008093D9009093DC0008
:100920008093DB006091D9008091DB00FADBCDCFB2
:100930001F920F920FB60F9211242F933F934F9354
:100940005F936F937F938F939F93AF93BF93EF9337
:10095000FF939091D000E92FFF27E453FF4F85B11B
:100960008083992311F080E601C081E687B9292FA1
:100970003327F901E453FF4F808187FD0DC0D90172
:10098000A253BF4F8C91813039F4F901EC52FF4FE3
:1009900080818F5F80831C92292F3327F901E453D4
:1009A000FF4F8081813870F0D901A253BF4F8C91E5
:1009B000882341F4F901EC52FF4F80818F5F8083DF
:1009C00081E08C9321E092279093D0009091D10008
:1009D000992309F58091D400853630F09093CA00B0
:1009E0009093D4002093D2008091D500853630F0CA
:1009F0009093C9009093D5002093D3008091D300A9
:100A0000813049F48091D200813029F48093D10063
:100A100084EB8093CA008091D100813089F4809169
:100A2000D400833368F01092D4001092D300109257
:100A3000D2001092D10088EC8093C9008093CA0044
:100A40006091C9008091CA006CDBFF91EF91BF916A
:100A5000AF919F918F917F916F915F914F913F9156
:100A60002F910F900FBE0F901F90189531DBF894C7
:100A700068EC862F56DB84B38C7F84BB979A8FEE0D
:100A800086B981E687B97894FFCF1F920F920FB68F
:100A90000F9211242F933F934F935F936F937F9304
:100AA0008F939F93AF93BF93EF93FF938B9A939AF8
:100AB00084E487B980E090E002968E3F9105E0F3F0
:100AC000369A349BFECF349A84B185B160E1862F8B
:100AD00030DB68EC862F25DB81E047DB61E0862F89
:100AE0004FDB81E090E004962FEF8D3F9207D8F323
:100AF00081E08093E30093988B98FF91EF91BF91F1
:100B0000AF919F918F917F916F915F914F913F91A5
:100B10002F910F900FBE0F901F9018952091D90024
:100B20003091DA002B5F3F4F3093DA002093D900E9
:100B30008091DB009091DC0005969093DC0080931F
:100B4000DB00CF96CF9730F481E090E09093DC000B
:100B50008093DB00215C3F4F2F33310530F481E07F
:100B600090E09093DA008093D90081E0FEDA60E0B3
:100B7000862F06DB08958091D9009091DA000597C1
:100B80009093DA008093D9002091DB003091DC0053
:100B9000255030403093DC002093DB002B5F3F4F2B
:100BA0000197CF9730F48FEF9FEF9093DA00809307
:100BB000D900265030402F33310530F48FEF9FEFAE
:100BC0009093DC008093DB0080E0CFDA61E0862F39
:100BD000D7DA08958091DB009091DC00059790931F
:100BE000DC008093DB000197CF9730F48FEF9FEF0D
:100BF0009093DC008093DB008091D9009091DA0023
:100C000005969093DA008093D900CF96CF9730F471
:100C100081E090E09093DA008093D90080E0A5DA3B
:100C200060E081E0ADDA08958091DB009091DC0016
:100C300005969093DC008093DB00CF96CF9730F43D
:100C400081E090E09093DC008093DB008091D900FC
:100C50009091DA0005979093DA008093D90001977C
:100C6000CF9730F48FEF9FEF9093DA008093D90005
:100C700080E07BDA61E080E083DA08951092DC00A6
:100C80001092DB001092DA001092D90080E06DDA49
:100C900060E0862F75DA0895CF93DF93CDB7DEB786
:100CA00021970FB6F894DEBF0FBECDBF11DA67DB18
:100CB000789419824EEF5FEF61E0CE010196D4DAAD
:100CC0008981992785339105B9F08633910534F4EC
:100CD0008233910549F0C49759F00FC086339105CE
:100CE00049F0C89719F009C046DF07C017DF05C0F3
:100CF00071DF03C099DF01C0C1DF2091DB003091BB
:100D0000DC00C9010197CE9730F4215C3F4F30934E
:100D1000DC002093DB008091DB009091DC0097FFEA
:100D200009C02FEF823C92072CF0CF979093DC0004
:100D30008093DB002091D9003091DA00C90101973E
:100D4000CE9730F4215C3F4F3093DA002093D900E6
:100D50008091D9009091DA0097FF09C05FEF823C43
:100D600095072CF0CF979093DA008093D90080916B
:100D7000E300882351F01092DC001092DB00109207
:100D8000DA001092D9001092E30040E2642F8091C3
:100D9000DB009091DC0097FD40E12091D90030917B
:100DA000DA0037FD60E18F3F910539F034F08FEFC5
:100DB00090E09093DC008093DB008091DB009091C9
:100DC000DC0081509F4F34F481E09FEF9093DC0072
:100DD0008093DB002F3F310539F034F08FEF90E046
:100DE0009093DA008093D9008091D9009091DA0035
:100DF00081509F4F34F481E09FEF9093DA0080930D
:100E0000D900842F96D96091D9007091DA0077FFCC
:100E100003C0709561957F4F8091DB009091DC005D
:100E200097FF03C0909581959F4F7BD942CF20912A
:100E3000D9003091DA002B5F3F4F3093DA002093D6
:100E4000D9008091DB009091DC0005969093DC0046
:100E50008093DB00CF96CF9730F481E090E09093C1
:100E6000DC008093DB00215C3F4F2F33310530F4F1
:100E700081E090E09093DA008093D90081E075D909
:100E800060E0862F7DD908958091D9009091DA0095
:100E900005979093DA008093D9002091DB00309180
:100EA000DC00255030403093DC002093DB002B5FCA
:100EB0003F4F0197CF9730F48FEF9FEF9093DA0079
:100EC0008093D900265030402F33310530F48FEF16
:100ED0009FEF9093DC008093DB0080E046D961E0D7
:100EE000862F4ED908958091DB009091DC00059704
:100EF0009093DC008093DB000197CF9730F48FEF65
:100F00009FEF9093DC008093DB008091D90090915B
:100F1000DA0005969093DA008093D900CF96CF97A8
:100F200030F481E090E09093DA008093D90080E083
:100F30001CD960E081E024D908958091DB00909174
:100F4000DC0005969093DC008093DB00CF96CF9772
:100F500030F481E090E09093DC008093DB0080919E
:100F6000D9009091DA0005979093DA008093D90028
:100F70000197CF9730F48FEF9FEF9093DA00809333
:100F8000D90080E0F2D861E080E0FAD808951092AC
:100F9000DC001092DB001092DA001092D90080E0A1
:100FA000E4D860E0862FECD808950F931F93CF9379
:100FB000DF93CDB7DEB7A1970FB6F894DEBF0FBEB3
:100FC000CDBF86D810E0012F8099FECF12BE85E0FC
:100FD00083BF90B391708099FECF9130D1F782B7E3
:100FE000898382B7813630F082B7823718F4092FAF
:100FF00083E0A9D820E022BF013009F04AC090B3B5
:1010000091709217B1F0921798F482B7813118F06D
:1010100082B7833130F082B7873048F082B78031B1
:1010200030F4FE01E10FF11D82B781831F5F12BE14
:10103000292F103218F482B7803608F382B782362F
:1010400040F51092D7001092D60010E140E050E039
:1010500020E130E0FE01E20FF31F8181813170F069
:101060002051304081E090E0022E02C0880F991F8D
:101070000A94E2F7205F3F4F482B592B1F5F2F5FE9
:101080003F4F103238F35093D7004093D60081E0A1
:101090005AD88091D6009091D70020EF8F309207D8
:1010A00081F150EF80319507A0F426EE8931920747
:1010B00081F156EE8A31950720F48A51954E39F127
:1010C00029C057EE8831950701F181519E4ED9F024
:1010D00021C05BEF84309507C1F02BEF853092077C
:1010E00040F453EF8C309507A1F085509A4F79F07A
:1010F00011C05EEF8130950721F080509F4F19F0AD
:1011000009C0C2DE07C093DE05C0EDDE03C015DFF7
:1011100001C03DDF2091DB003091DC00C901019767
:10112000CE9730F4215C3F4F3093DC002093DB00FE
:101130008091DB009091DC0097FF09C05FEF823C5B
:1011400095072CF0CF979093DC008093DB002091E3
:10115000D9003091DA00C9010197CE9730F4215CB3
:101160003F4F3093DA002093D9008091D9009091BD
:10117000DA0097FF09C02FEF823C92072CF0CF973F
:101180009093DA008093D90040E2642F8091DB00D5
:101190009091DC0097FD40E12091D9003091DA0078
:1011A00037FD60E18F3F910539F034F08FEF90E02B
:1011B0009093DC008093DB008091DB009091DC0059
:1011C00081509F4F34F481E09FEF9093DC00809337
:1011D000DB002F3F310539F034F08FEF90E0909332
:1011E000DA008093D9008091D9009091DA00815083
:1011F0009F4F34F481E09FEF9093DA008093D90001
:10120000842F97D76091D9007091DA0077FF03C0DF
:10121000709561957F4F8091DB009091DC0097FF86
:1012200003C0909581959F4F7CD7CCCE5058192EF6
:10123000D5D001D0B8C0BA176207730784079507E5
:10124000B1F188F40EF410940B2EBA2FA02D062EB7
:10125000622F202D072E732F302D082E842F402D26
:10126000092E952F502DFF275523B9F0591B49F012
:10127000573E98F0469537952795A795F04053959A
:10128000C9F776F0BA0F621F731F841F30F4879579
:1012900077956795B795F040939517FA0F2E0895B7
:1012A000BF1BBB27BA0B620B730B840BF6CFDEF6AA
:1012B000B1C0592F482F372F262F9FE380E877277B
:1012C00066278CD001D06FC0552359F0992369F05F
:1012D0009F575F57951B33F442F4903811F491589F
:1012E00005C079C091589F3F09F494C0BB271124D1
:1012F00062177307840730F4660F771F881FBB1FC0
:10130000915098F311D00F920FD00F920DD0A0E80A
:101310002617370748071B0609F0A048BA2F602D8B
:101320007F918F9100240895A0E80024621773072D
:101330008407B10528F0621B730B840BB1090A2ADC
:10134000660F771F881FBB1FA69581F7089597FB2F
:1013500051D09F3738F0FEE9F91B982F872F762F51
:101360006B2F05C054C09695879577956795F1507A
:10137000D0F73EF490958095709561957F4F8F4F93
:101380009F4F0895E89403C097FB0EF4F3DFB62F48
:10139000672F782F892F9EE9002405C09A95BB0FEF
:1013A000661F771F881F11249923A1F08823B2F7A5
:1013B0009F3F59F0BB0F48F421F4002011F460FF67
:1013C00004C06F5F7F4F8F4F9F4F881F9795879502
:1013D00097F908951CC09FEF80EC0895052E09260B
:1013E00007FA440F551F5F3F79F0AA27A51708F0A9
:1013F00051E04795880F991F9F3F31F0BB27B917E0
:1014000008F091E0879508959F919F91E4CF66271A
:101410007727882799270895592F482F372F262F68
:10142000DDDF01D0C0CF992339F0552329F09F5734
:101430005F57950F13F4CAF1EDCF91589F3FE1F339
:10144000A62F00241124BB2766275527F8E0A69570
:1014500020F4020E131EB41F651F220F331F441FFA
:10146000551FFA95A1F7F8E0E72F7727F8E0E69502
:1014700020F4130EB41F651F7A1F330F441F551F2E
:10148000AA1FFA95A1F7F82F8827F69520F4B40F34
:10149000651F7A1F8E1F440F551FAA1FEE1FFF23C3
:1014A000A1F788231AF4939539F495CF000C111CF9
:0E14B000BB1F661F771F881F01280895FFCFFE
:1014BE000A0D2D2D20415355524F205465737469DA
:1014CE006E67202D2D0A0D004C4544205465737413
:1014DE000A0D004C696E6520546573740A0D005335
:1014EE00776974636820546573740A0D004F646FD6
:1014FE006D657472696520546573740A0D004D6FC5
:10150E00746F7220546573740A0D005365726961AD
:0C151E006C20546573740A0D00C8C800EE
:00000001FF
