:1000000012C02BC02AC0C1C028C027C026C025C02E
:1000100024C023C022C021C020C01FC01EC01DC0DC
:100020001CC01BC01AC011241FBECFE5D4E0DEBF28
:10003000CDBF10E0A0E6B0E0E2EBF4E002C0059036
:100040000D92A036B107D9F710E0A0E6B0E001C0EC
:100050001D92A336B107E1F701C0D2CFCAE5D4E0C3
:10006000DEBFCDBFCC24DD247601AA24BB2445010C
:100070001D829DD0C501C8D122E08030920728F4AE
:10008000A12C5FEFB52EA80EB91E60E2862FC0D05E
:10009000CE0101960ED1C114D10471F489819A81E7
:1000A0008356924048F041E0C42ED12CAC0CBD1CCC
:1000B0008C0C9D1C81E08D8321E0C216D10479F463
:1000C00089819A818E54924050F4CC24DD24089486
:1000D000A11CB11C0894811C911C81E08D83E1144A
:1000E000F10459F48B819C818356924030F031E0C9
:1000F000E32EF12C0894A108B10881E0E816F10480
:1001000051F48B819C818E54924028F4EE24FF247C
:100110000894A108B10881E0A8168FEFB80624F46E
:1001200021E0A22E2FEFB22E2FEFA216B10421F064
:100130001CF09FEFA92EB12C2C2DC7018E0D9F1DF9
:10014000280F822F6FD01A141B0424F48A2D809557
:100150006FEF04C08A2D8150682F8FEF51D0C401FA
:100160008F779070009709F093CF2D81213009F09F
:100170008FCF850100501F4F602F53D1812F9927BA
:10018000682F81E090E04DD183CF1F920F920FB680
:100190000F9211248F93809162008F5F8093620091
:1001A0008F910F900FBE0F901F901895089589E1C1
:1001B00085BD8EE683BD89B7806889BF1BB81AB834
:1001C00096E890BD8FEC89B98FE387BB84EF81BB44
:1001D00081EA8FBD82E08EBD96B9979880E034D0D9
:1001E00061E0862F3CD060E0862F39D081E01AD0C4
:1001F00060E2862F0DD060E0862F02D078940895BB
:1002000099279BBD8ABD862F992799BD88BD0895E2
:10021000982F82B38F7C892B82BB88B38F7C862BEF
:1002200088BB0895882311F4C0989298813011F406
:10023000C09A9298833011F4C09A929A823011F445
:10024000C098929A0895089522B32F7B992736E09B
:10025000880F991F3A95E1F7282B22BB0895982F14
:10026000882311F4662339F0979884B3836084BBA4
:1002700085B3836085BB992309F4A998662309F4A3
:10028000A89808950895FC0183E487B9369A349BB1
:10029000FECF349A84B195B18083918382E487B98B
:1002A000369A349BFECF349A84B195B1828393837E
:1002B0000895FC0184B38C7F84BB979A81E487B94D
:1002C000369A349BFECF349A84B195B18083918362
:1002D00080E487B9369A349BFECF349A84B195B1C5
:1002E000828393830895AC0120E088E08AB9662375
:1002F00059F05D9B07C0FA01E20FF11D80818CB9B6
:100300002F5F61506623A9F75E9BFECF0895DC0145
:1003100070E020E030E080E18AB94115510501F13B
:100320007617C0F4C90121E030E08417950790F4F6
:100330005F9B08C0FD01E70FF11D8CB180837F5FDB
:1003400020E030E0761730F4C9012F5F3F4F84176B
:10035000950770F34217530778F4872F992708956C
:10036000761750F45F9B06C0FD01E70FF11D8CB1BD
:1003700080837F5F7617B0F3862F992708958B9A35
:10038000939A84E487B98AE022D0369A349BFECFD0
:10039000349A939884B195B19C014427552760E025
:1003A00070E082E090E048D0DA01C9018F5786956D
:1003B0009927089593988B9885B7837F85BF8BB7CE
:1003C00080688BBF08958BB78F778BBF0895982F68
:1003D00010926200809162008917E0F308950F93F4
:1003E0001F93CF93DF938C01C0E0D0E0C817D907EB
:1003F00030F488E4ECDF2196C017D107D0F3DF9109
:10040000CF911F910F910895E199FECF9FBB8EBBB5
:10041000E09A01960DB29FBB8EBBE09A802D9DB3F2
:100420000895E199FECF9FBB8EBB6DBB0FB6F894CC
:10043000E29AE19A0FBE089597FB092E05260ED089
:1004400057FD04D014D00AD0001C38F450954095C4
:10045000309521953F4F4F4F5F4F0895F6F7909598
:100460008095709561957F4F8F4F9F4F0895A1E2C2
:100470001A2EAA1BBB1BFD010DC0AA1FBB1FEE1F1E
:10048000FF1FA217B307E407F50720F0A21BB30B69
:10049000E40BF50B661F771F881F991F1A9469F7E5
:1004A00060957095809590959B01AC01BD01CF0141
:0204B0000895AD
:00000001FF
