:100000000C9438000C9455000C9455000C94550039
:100010000C9455000C9455000C9455000C9455000C
:100020000C9455000C9455000C9455000C945500FC
:100030000C9455000C9455000C9455000C949600AB
:100040000C9455000C9455000C94BA000C94550077
:100050000C9457000C9455000C9455000C945500CA
:100060000C9455000C9455000C9455000C945500BC
:1000700011241FBECFEFD0E1DEBFCDBF15E0A0E061
:10008000B1E0EEE7F7E102C005900D92A233B107AF
:10009000D9F715E0A2E3B5E001C01D92AA3CB10773
:1000A000E1F70E94D8000C94BD0B0C9400001F9245
:1000B0000F920FB60F9211241F932F933F934F93DC
:1000C0005F936F937F938F939F93AF93BF93EF93C0
:1000D000FF931091C6001F3F39F480E091E00E9429
:1000E00040020E9412010DC0193059F48CE191E0D8
:1000F0000E9440020E94D90189E391E00E944002DF
:1001000003C0812F0E946706FF91EF91BF91AF91CD
:100110009F918F917F916F915F914F913F912F911F
:100120001F910F900FBE0F901F9018951F920F9266
:100130000FB60F9211242F933F934F935F936F93BA
:100140007F938F939F93AF93BF93EF93FF930E94FF
:100150007205FF91EF91BF91AF919F918F917F9128
:100160006F915F914F913F912F910F900FBE0F9024
:100170001F9018951F920F920FB60F9211242F9374
:100180003F934F935F936F937F938F939F93AF931F
:10019000BF93EF93FF9386E591E00E944002FFCF6B
:1001A00014B88FEF85B917B888B91AB88BB9089504
:1001B0001F93CF93DF9329E288E190E00FB6F89484
:1001C000A895809360000FBE209360000E94D0002D
:1001D0000E941B020E9456050E948E028BE791E04E
:1001E0000E9440027894C8E1D0E019E20FB6F8947A
:1001F000A895C09360000FBE1093600002C00E94DB
:10020000180780915A0580FDFACF80915A0581FF29
:1002100002C00E94790780915A0582FFE7CF0E94B1
:100220004903E4CF28E088E190E00FB6F894A89560
:10023000809360000FBE209360008FE794E8AEE1EA
:1002400081509040A040E1F700C000000895EF9277
:10025000FF920F931F93CF93DF9386EA91E00E9462
:1002600040028AEC91E00E9440028EEC91E00E94F4
:10027000400280E092E00E9440028EE292E00E9402
:1002800040028FE492E00E94400286E792E00E94E2
:1002900040028BE992E00E9440028BEB92E00E94C8
:1002A00040020DED12E0C8010E94400280EE92E093
:1002B0000E94400284EF92E00E9440028CE093E0B2
:1002C0000E9440028DE293E00E9440028CE593E0A0
:1002D0000E9440028BE893E00E94400286EB93E08C
:1002E0000E94400286EE93E00E94400282E194E088
:1002F0000E9440028DB79EB708970FB6F8949EBF34
:100300000FBE8DBFEDB7FEB73196CCE5D5E0ADB7EA
:10031000BEB71296DC93CE93119780E5E82EF12CB0
:10032000F382E2828DE394E0958384838091420599
:10033000868317820E94CE088DB79EB708960FB6A7
:10034000F8949EBF0FBE8DBFCE010E944002ADB794
:10035000BEB718970FB6F894BEBF0FBEADBFEDB7CE
:10036000FEB731961296DC93CE931197F382E28218
:1003700084E594E0958384838091440590914505BC
:10038000978386830E94CE088DB79EB708960FB6D6
:10039000F8949EBF0FBE8DBFCE010E944002C801DF
:1003A0000E944002DF91CF911F910F91FF90EF903B
:1003B00008950F931F93CF93DF931091AD05109283
:1003C000AD0518B8C8E1D0E009E20FB6F894A895D9
:1003D000C09360000FBE009360000E9429028B3121
:1003E00019F40E941201F1CF8D3079F71093AD0509
:1003F000DF91CF911F910F910895CF93DF93282F15
:10040000392FA62FB72F04C0891BF901ED0161F424
:10041000ED01F90180812F5F3F4F882321F09C91EE
:100420001196992389F780E090812881921B892B6E
:10043000DF91CF91089580E48093C4001092C500AD
:100440001092C00087E08093C20088E98093C100C9
:1004500008958091C00087FF03C08091C600089571
:1004600080E008958091C00087FFFCCF8091C60096
:1004700008959091C00095FFFCCF8093C600089529
:10048000EF92FF92CF93DF93E82EE7017E01F92EE2
:10049000E70102C00E94390289918823D9F7DF91D0
:1004A000CF91FF90EF9008950F931F93CF93DF9319
:1004B000EC01062F0E94320210E028C0883011F0B3
:1004C0008F3749F41123E9F01A92115085E694E030
:1004D0000E94400219C08B3159F487E99AE30197D1
:1004E000F1F700C000000E9432020E9432020CC0EC
:1004F000101738F4813228F08F3718F489931F5F72
:1005000001C087E00E9439020E9432028D30B1F6AC
:100510001882DF91CF911F910F91089588B1807F4C
:1005200088B987B18F6087B981E08093460583E001
:100530008093470582E08093480586E080934905D3
:1005400084E080934A058CE080934B0588E080939B
:100550004C0589E080934D051092C6051092450523
:10056000109244051092B0051092AF058AEA95E00A
:100570009093B5058093B4058CEA9DE09093B20505
:100580008093B10588EB9BE09093C8058093C705E5
:1005900010925905109258050895CF92DF92EF926C
:1005A000FF920F931F93DF93CF93CDB7DEB72897BA
:1005B0000FB6F894DEBF0FBECDBFDE011196E9E69F
:1005C000F4E088E001900D928150E1F72BC00FB666
:1005D000F894A895E09260000FBEC092600088E099
:1005E0000E9439028091C605F801E80FF11D808153
:1005F0000E9439028091C605882319F4D092C6055D
:1006000003C081508093C605E091C605F0E0EA5B27
:10061000FA4F808188B98FE493EC0197F1F700C01D
:1006200000000AC028E1E22EF12C99E2C92E8E01C9
:100630000F5F1F4F87E0D82E0599C9CF8091C6055F
:10064000873018F01092C60503C08F5F8093C605EF
:100650008091C605873018F01092C60503C08F5FE1
:100660008093C60510924505109244051092B0057E
:100670001092AF0528960FB6F894DEBF0FBECDBF1F
:10068000CF91DF911F910F91FF90EF90DF90CF906E
:100690000895CF93DF938091580590915905009765
:1006A00031F00197909359058093580577C0809158
:1006B000C7059091C805909359058093580580917E
:1006C0004405909145059C012F703070211531052E
:1006D00061F52DB73EB7285030400FB6F8943EBFB5
:1006E0000FBE2DBFEDB7FEB73196CCE5D5E0ADB767
:1006F000BEB71296DC93CE93119720E530E033839A
:10070000228322E734E035832483978386830E9403
:10071000CE082DB73EB7285F3F4F0FB6F8943EBFC7
:100720000FBE2DBFCE010E9440022091AF05309137
:10073000B00580914405909145052817390739F493
:1007400018B880915A058B7F80935A0527C02817C7
:10075000390758F42091C605222311F427E001C07F
:1007600021502093C60501970EC082179307B0F45D
:100770002091C605273018F01092C60503C02F5FE0
:100780002093C60501969093450580934405E0911A
:10079000C605F0E0EA5BFA4F808188B9DF91CF911E
:1007A0000895CF93DF932091B1053091B2052817BA
:1007B000390770F58DB79EB708970FB6F8949EBFAE
:1007C0000FBE8DBFEDB7FEB73196CCE5D5E0ADB726
:1007D000BEB71296DC93CE9311978EE190E093838F
:1007E000828381E894E095838483378326830E9403
:1007F000CE088DB79EB708960FB6F8949EBF0FBE71
:100800008DBFCE010E9440028091B1059091B2054A
:100810002CE735E1281B390B3093C8052093C70519
:10082000DF91CF9108950F931F93CF93DF93409162
:10083000C7055091C80522273327241B350B60912B
:10084000B1057091B205CCE7D5E1DE01A41BB50B73
:10085000AD01480F591F6417750798F5EDB7FEB73E
:1008600038970FB6F894FEBF0FBEEDBF31960CE57A
:1008700015E0ADB7BEB712961C930E93119780E5A5
:1008800090E09383828381E894E0958384837783E7
:1008900066830E94CE08EDB7FEB738960FB6F8947F
:1008A000FEBF0FBEEDBFC8010E9440028091B1059E
:1008B0009091B205C81BD90BD093C805C093C7054A
:1008C00008C024583A4E281B390B3093C805209392
:1008D000C705DF91CF911F910F910895CF93DF93BB
:1008E000CCE7D5E12091C7053091C805AE01421B88
:1008F000530B9A014817590748F48EE894E00E9478
:100900004002D093C805C093C70506C0280F391F01
:100910003093C8052093C705DF91CF9108952CE748
:1009200035E18091C7059091C805281B390BC90195
:100930000895CF93DF932091B4053091B505281722
:10094000390770F58DB79EB708970FB6F8949EBF1C
:100950000FBE8DBFEDB7FEB73196CCE5D5E0ADB794
:10096000BEB71296DC93CE93119780E590E0938307
:10097000828381E894E095838483378326830E9471
:10098000CE088DB79EB708960FB6F8949EBF0FBEDF
:100990008DBFCE010E9440028091B4059091B505B3
:1009A0009093B0058093AF0580915A058460809341
:1009B0005A05DF91CF910895CF93DF932091AF0532
:1009C0003091B005280F391F8091B4059091B5057D
:1009D00082179307A8F52DB73EB7285030400FB6C1
:1009E000F8943EBF0FBE2DBFEDB7FEB73196CCE5F4
:1009F000D5E0ADB7BEB71296DC93CE93119720E544
:100A000030E03383228321E834E0358324839783E5
:100A100086830E94CE082DB73EB7285F3F4F0FB6A2
:100A2000F8943EBF0FBE2DBFCE010E9440028091C0
:100A3000B4059091B5059093B0058093AF0504C0BF
:100A40003093B0052093AF0580915A058460809360
:100A50005A05DF91CF9108952091AF053091B005EF
:100A6000281B390B8091B4059091B5058217930727
:100A700048F48EE894E00E9440021092B005109273
:100A8000AF0504C03093B0052093AF0580915A059F
:100A9000846080935A05089580914405909145059E
:100AA00008958091AF059091B005089582E48093F8
:100AB00042058AEF809343051092B30581B1806CA3
:100AC00081B980E891EC9093850080938400109226
:100AD000800082E080938100EFE6F0E08081816019
:100AE000808308959091B305992349F412B880EB5F
:100AF0009CE3909385008093840081E016C08091F0
:100B000042059130A9F490E492B990E090958195D6
:100B10009F4F33E0880F991F3A95E1F7845C994025
:100B2000909385008093840082E08093B3050895BC
:100B300090E892B990E08157924023E0880F991F86
:100B40002A95E1F790938500809384001092B30575
:100B500008958091B305813049F0813018F08230DA
:100B6000F1F40DC012B880EC93E615C080E482B9B0
:100B70002091420586E09FEF821B910907C080E823
:100B800082B98091420590E0845F914043E0880FF4
:100B9000991F4A95E1F79093850080938400809196
:100BA000B3058F5F8093B305833011F41092B305C2
:100BB0000895CF93DF9320914305281760F58DB7F3
:100BC0009EB708970FB6F8949EBF0FBE8DBFEDB7C6
:100BD000FEB73196CCE5D5E0ADB7BEB71296DC9343
:100BE000CE93119780E590E0938382838AE994E025
:100BF00095838483268317820E94CE088DB79EB783
:100C000008960FB6F8949EBF0FBE8DBFCE010E940E
:100C100040028091430580934205DF91CF91089572
:100C2000CF93DF932091420530E0280F311D809152
:100C3000430590E0821793078CF52DB73EB72850F7
:100C400030400FB6F8943EBF0FBE2DBFEDB7FEB7D4
:100C50003196CCE5D5E0ADB7BEB71296DC93CE9316
:100C6000119720E530E0338322832AE934E035838D
:100C70002483978386830E94CE082DB73EB7285FD2
:100C80003F4F0FB6F8943EBF0FBE2DBFCE010E945E
:100C90004002809143058093420502C020934205A3
:100CA000DF91CF9108952091420530E0281B310952
:100CB00037FF07C087EA94E00E9440021092420585
:100CC0000895209342050895809142050895E0918A
:100CD0005B059E2F9F5F903108F090E02091C90541
:100CE000921721F487E00E9439020895F0E0EE5C4B
:100CF000FA4F808380915A05816080935A059093C2
:100D00005B0508958F3711F0883099F4E09156050E
:100D1000EE2301F1E150E0935605F0E0EA54FA4F7A
:100D2000108288E00E94390280E20E94390288E045
:100D300012C0982F90529F3568F4909156059031CB
:100D400048F4E92FF0E0EA54FA4F80839F5F9093D4
:100D5000560501C087E00E94390208951F93182F9D
:100D6000843249F484E20E94390280915A058064F9
:100D700080935A055BC0803319F40E94CD0256C09F
:100D8000813311F481E003C0823321F480E40E94B6
:100D9000D9054CC0833311F480E8F9CF843311F4C2
:100DA00080ECF5CF853311F48AEFF1CF863329F447
:100DB00084E190E00E94130439C0873329F484E170
:100DC00090E00E946E0432C0883381F1893329F4A7
:100DD00084EF91E00E94D10329C0813731F48091E2
:100DE00042058A3F18F58F5F07C0873741F480912D
:100DF00042058823D9F081508093420517C081367F
:100E000029F484E190E00E94DC0410C0833729F4C7
:100E100084E190E00E942C0509C087E00E9439021D
:100E2000812F0E94390288E00E9439021F910895A3
:100E30009091C905E92FF0E0EE5CFA4F80819F5F49
:100E40009093C905903110F01092C9052091C90501
:100E500090915B05291729F490915A059E7F9093F4
:100E60005A0590915A0596FF16C08D3089F4E0918D
:100E70005605F0E0EA54FA4F108280915A058F7BB4
:100E800080935A0580915A05826080935A0508958F
:100E90000E94820608950E94AE060895282F392FD9
:100EA000F90120E030E020C0982F9A52963118F0D6
:100EB00083EB94E006C099E12939390738F08AECD0
:100EC00094E00E9440022FEF3FEF11C0A901440FB0
:100ED000551F90E0C09763E0220F331F6A95E1F73A
:100EE000280F391F240F351F81918823E9F6C90186
:100EF0000895EF92FF920F931F93CF93DF9380910A
:100F00005A058F7E80935A0580915A058F7D809374
:100F10005A0580915A058D7F80935A05E6EBF5E0DE
:100F20001E2F0F2F81918032D9F3882309F426C117
:100F3000C801E92FF82FCF012E2F8191882309F4C2
:100F40001AC18032C1F7E22FF92F11923E2F2F2FB5
:100F500081918032D9F3E32EE7017E01F22EE70181
:100F6000882309F408C12097A9F08B3221F48091DD
:100F70005A05806105C08D3239F480915A0580622E
:100F800080935A05219606C0C901692FEB017E01A5
:100F9000F82EE701812F902F6EED74E00E94C508B6
:100FA000009729F40E94270180915605DFC0812F08
:100FB000902F63EE74E00E94C508009709F041C0CD
:100FC0002097F1F0CE010E944E073FEF8F3F93072D
:100FD00059F38F3F910519F010F08FEF90E02091B9
:100FE0005A0524FF03C00E9410064DC020915A05E7
:100FF00025FF03C00E94530650C00E94D9056DC052
:101000000E9464066DB77EB7685070400FB6F894C2
:101010007EBF0FBE6DBFEDB7FEB73196CCE5D5E014
:10102000ADB7BEB71296DC93CE93119720E530E0B2
:101030003383228320EF34E0358324838683178231
:1010400071C0812F902F68EF74E00E94C50800974F
:1010500081F5209759F1CE010E944E073FEF8F3F57
:10106000930709F4A1CF4BE0893B940730F080E06F
:1010700095E00E94400288EB9BE020915A0524FFF6
:1010800006C00E94DC0480915A058F7E09C0209121
:101090005A0525FF08C00E942C0580915A058F7DB6
:1010A00080935A051AC00E94990417C00E945105E6
:1010B0001BC0812F902F6FE075E00E94C50800973C
:1010C000F1F5209779F0CE010E944E073FEF8F3F58
:1010D000930709F469CF0E94D1038AEE94E00E943D
:1010E000400262CF0E948F046DB77EB76850704097
:1010F0000FB6F8947EBF0FBE6DBFEDB7FEB7319649
:10110000CCE5D5E0ADB7BEB71296DC93CE93119780
:1011100020E530E03383228320EF34E035832483DD
:10112000978386830E94CE082DB73EB7285F3F4F36
:101130000FB6F8943EBF0FBE2DBFCE01D0CF812F8A
:10114000902F65E175E00E94C508009719F40E9490
:1011500012012ACF87E00E9439028BE195E0BFCFD0
:101160008150E82FF0E0EA54FA4F10828823C1F74B
:101170001092560503C0C0E0D0E00CCFDF91CF91B4
:101180001F910F91FF90EF900895FB01DC018D916D
:10119000019080190110D9F3990B0895AEE0B0E0E9
:1011A000E4EDF8E00C94940B0D891E898F89988DDD
:1011B00026E02C831A83098397FF02C080E090E821
:1011C00001979E838D839E01255E3F4FCE01019640
:1011D000698D7A8DA9010E94FF084D815E8157FDBE
:1011E0000AC02F813885421753070CF49A01020F69
:1011F000131FF80110822E96E4E00C94B00BACE0C3
:10120000B0E0E5E0F9E00C94860B6C011B018A016B
:10121000FC0117821682838181FFD1C12E010894BF
:10122000411C511CF6019381F10193FD859193FFBF
:1012300081911F01882309F4BEC1853239F493FDE1
:10124000859193FF81911F01853229F490E0B601C9
:101250000E94FC0AE7CFEE24FF2420E02032B0F405
:101260008B3269F08C3228F4803251F0833271F481
:101270000BC08D3239F0803349F421602CC02260DC
:10128000246029C0286027C0206125C027FD2CC00C
:10129000382F30533A3098F426FF08C08E2D880F2F
:1012A000E82EEE0CEE0CE80EE30E15C08F2D880F25
:1012B000F82EFF0CFF0CF80EF30E20620CC08E32DD
:1012C00021F426FD78C1206406C08C3611F4206814
:1012D00002C0883649F4F10193FD859193FF819115
:1012E0001F01882309F0BACF982F9554933018F036
:1012F0009052933028F40C5F1F4FFFE3F9830DC029
:10130000833631F0833771F0833509F060C022C035
:10131000F801808189830E5F1F4F420171E0A72E83
:10132000B12C16C062E0662E712C600E711EF801A1
:101330008080918026FF03C06E2D70E002C06FEFA9
:101340007FEFC4012C870E94F10A5C0183012C8588
:101350002F7717C052E0652E712C600E711EF801B8
:101360008080918026FF03C06E2D70E002C06FEF79
:101370007FEFC4012C870E94E60A5C012C8520685F
:10138000830123FD20C008C080E290E0B6012C87D5
:101390000E94FC0AFA942C858F2D90E0A816B906BD
:1013A00098F311C0F40127FD859127FF81914F012A
:1013B00090E0B6012C870E94FC0A2C85F110FA946B
:1013C0000894A108B108A114B10461F7F1C08436F2
:1013D00011F0893649F527FF08C0F8016081718155
:1013E000828193810C5F1F4F09C0F8016081718178
:1013F000882777FD8095982F0E5F1F4F4FE6B42EFC
:10140000B22297FF09C090958095709561957F4FA6
:101410008F4F9F4FF0E8BF2AA2012AE030E00E94E0
:10142000280B782E741845C0853731F43FEEB32E63
:10143000B2222AE030E025C099EFB92EB2228F36D1
:10144000C1F0803720F4883509F0B5C00DC0803771
:1014500021F0883709F0AFC002C020E1B22AB4FE03
:101460000BC084E0B82A08C0B4FE09C0E6E0BE2A7A
:1014700006C028E030E005C020E130E002C020E1F5
:1014800032E0B7FE08C0F8016081718182819381EA
:101490000C5F1F4F07C0F8016081718180E090E010
:1014A0000E5F1F4FA2010E94280B782E7418FFE7D1
:1014B000BF22B6FE0BC02EEFB2227E1438F4B4FE6B
:1014C00007C0B2FC05C08FEEB82202C0A72C01C035
:1014D000AE2C8B2D90E0B4FE0DC0FE01E70DF11D8A
:1014E0002081203319F4E9EEBE2209C0A394B2FE94
:1014F00006C004C086789070009709F0A3948B2CE6
:101500009924B3FC14C0B0FE0FC0AF1428F4E72C2C
:10151000EF0CEA18AF2C08C0E72C06C080E290E080
:10152000B6010E94FC0AA394AF14C0F304C0AF1428
:1015300010F4FA1801C0FF2484FE0FC080E390E08D
:10154000B6010E94FC0A82FE1FC081FE03C088E52E
:1015500090E010C088E790E00DC0C40186789070DC
:10156000009791F081FC02C080E201C08BE2B7FCE1
:101570008DE290E0B6010E94FC0A06C080E390E094
:10158000B6010E94FC0AEA947E14C0F37A94F20138
:10159000E70DF11D808190E0B6010E94FC0A7720E2
:1015A000A9F706C080E290E0B6010E94FC0AFA9416
:1015B000FF20C1F737CEF6012681378102C02FEF19
:1015C0003FEFC9012C96E2E10C94A20BFC010590BF
:1015D000615070400110D8F7809590958E0F9F1F35
:1015E0000895FC016150704001900110D8F780957A
:1015F00090958E0F9F1F08950F931F93CF93DF93A6
:101600008C01EB018B8181FF1BC082FF0DC02E81FD
:101610003F818C819D812817390764F4E881F98125
:101620000193F983E88306C0E885F985802F099541
:10163000009731F48E819F8101969F838E8302C033
:101640000FEF1FEFC801DF91CF911F910F91089508
:10165000FA01AA27283051F1203181F1E8946F93E3
:101660006E7F6E5F7F4F8F4F9F4FAF4FB1E03ED089
:10167000B4E03CD0670F781F891F9A1FA11D680F27
:10168000791F8A1F911DA11D6A0F711D811D911D5A
:10169000A11D20D009F468943F912AE0269F1124CF
:1016A0003019305D3193DEF6CF010895462F477033
:1016B000405D4193B3E00FD0C9F7F6CF462F4F708E
:1016C000405D4A3318F0495D31FD4052419302D0EC
:1016D000A9F7EACFB4E0A695979587957795679592
:1016E000BA95C9F700976105710508959B01AC0192
:1016F0000A2E06945795479537952795BA95C9F7B9
:10170000620F731F841F951FA01D08952F923F9293
:101710004F925F926F927F928F929F92AF92BF9201
:10172000CF92DF92EF92FF920F931F93CF93DF93AD
:10173000CDB7DEB7CA1BDB0B0FB6F894DEBF0FBE0A
:10174000CDBF09942A88398848885F846E847D8457
:101750008C849B84AA84B984C884DF80EE80FD8059
:101760000C811B81AA81B981CE0FD11D0FB6F894CF
:0E177000DEBF0FBECDBFED010895F894FFCF90
:10177E000D0A2A2A2A2A2A2A2A2A20524553455451
:10178E00202A2A2A2A2A2A2A2A0D0A000D0A2A2A59
:10179E002A2A2A2A2A2A204E4F5441555321202ADA
:1017AE002A2A2A2A2A2A0D0A000D0A2A2A2A2A2039
:1017BE00756E64207765697465722E2E2E202A2A26
:1017CE002A2A2A0D0A000D0A2A2A2A2A2A2A2A2A0F
:1017DE002054494D4552305F4F56465F76656374CF
:1017EE00202A2A2A2A2A2A2A0D0A000D0A2D2D20FD
:1017FE0053746572656F2D4175666E616D6520431C
:10180E006F6E74726F6C6C65722076302E3432206F
:10181E002D2D200D0A000D0A20202A2A2A2054617F
:10182E007374656E20696D204B65797061642D4D02
:10183E006F6475733A202A2A2A000D0A2E000D0AAB
:10184E002020512F57203D2057696E6B656C284B19
:10185E006F6E76657267656E7A29206572686F6540
:10186E0068656E20627A772E2073656E6B656E00EA
:10187E000D0A2020412F53203D204B616D65726172
:10188E002041627374616E64206572686F6568656D
:10189E006E20627A772E2073656E6B656E000D0A70
:1018AE002020312C322C332C342C35203D205769FE
:1018BE006E6B656C20426569737069656C65000DB1
:1018CE000A202036203D204B616D657261204162F9
:1018DE007374616E6420756D2032303020657268CD
:1018EE006F6568656E000D0A202037203D204B6124
:1018FE006D6572612041627374616E6420756D2036
:10190E003230302073656E6B656E000D0A20203804
:10191E00203D20536368726974742D4D6F746F721D
:10192E002061627374656C6C656E000D0A20203048
:10193E00203D2041627374616E64206175662030B3
:10194E00206B616C696272696572656E000D0A00CA
:10195E000D0A20202A2A2A2042656665686C6520B9
:10196E002A2A2A000D0A20204B4F4D414E444F206B
:10197E005B5B2B7C2D5D574552545D000D0A20207C
:10198E002468656C702020202020202020202D200F
:10199E0044696573652068696C66652E000D0A20C2
:1019AE002024726573657420202020202020202D95
:1019BE002053797374656D2077697264206E657536
:1019CE00206765737461727465742E000D0A202091
:1019DE002477696E6B656C202020202020202D201E
:1019EE004769627420616B7475656C6C656E2077E7
:1019FE00696E6B656C206175732E000D0A202024B4
:101A0E0077696E6B656C205745525420202D2053FC
:101A1E0065747A742077696E6B656C2061756620CB
:101A2E00574552542E000D0A2020246162737461B2
:101A3E006E642020202020202D20476962742061B2
:101A4E006B7475656C6C656E2061627374616E6427
:101A5E00206175732E000D0A20202461627374615B
:101A6E006E642057455254202D205365747A74208D
:101A7E0061627374616E64206175662057455254BD
:101A8E002E000D0A20202B207C202D20202020200F
:101A9E00202020202D2072656C6C61746976652083
:101AAE0061656E646572756E67656E2E000D0A2037
:101ABE0020536572766F20506F736974696F6E284C
:101ACE00256429000D0A20205374657070657220FC
:101ADE002825642900082008002D2F2F7C7C5C5CB3
:101AEE002D000D0A41627374616E64203D202564E1
:101AFE0000202D3E202564286D61782E2900202D92
:101B0E003E2030286D696E2E2900202D3E20256442
:101B1E00286D61782E2900202D3E2030286D696EAB
:101B2E002E29002028556E67C3BC6C7469676572D8
:101B3E00205765727421290D0A002028576572748A
:101B4E00207A752067726FC39F21290D0A00686580
:101B5E006C700077696E6B656C00204F4B0D0A0040
:101B6E00203D2025750D0A0061627374616E64005C
:101B7E00202D3E2033303030286D61782E290073B1
:101B8E007065656400726573657400202842656631
:101B9E0065686C20756E62656B616E6E7421290DC1
:021BAE000A002B
:00000001FF
