:1000000012C02CC02BC0AEC261C228C027C026C0FF
:1000100025C024C023C022C021C020C0D1C21EC020
:100020001DC01CC01BC011241FBECFE5D4E0DEBF25
:10003000CDBF10E0A0E6B0E0EEE8FCE002C0059025
:100040000D92AE38B107D9F710E0AEE8B0E001C0CC
:100050001D92A93CB107E1F727D017C6D1CFAF92C7
:10006000BF92CF92DF92EF92FF920F931F935A01AC
:100070006B01780189019C01B901882777FD809582
:10008000982F29D4A80197017BD3A601950102D509
:1000900064D5EED3CB011F910F91FF90EF90DF90CD
:1000A000CF90BF90AF9008952F923F924F925F9262
:1000B0006F927F928F929F92AF92BF92CF92DF9278
:1000C000FF920F931F93CF93DF938BE896EAA3E7FA
:1000D000BFE38093A4009093A500A093A600B093E3
:1000E000A70084E893EDAAE7BFE38093A80090936C
:1000F000A900A093AA00B093AB0088E691E1A7E520
:10010000B1E480939C0090939D00A0939E00B093D7
:100110009F008BE39FE9ACECB1E48093A000909347
:10012000A100A093A200B093A30091D170D280D27D
:100130004091A4005091A5006091A6007091A70085
:1001400000919C0010919D0020919E0030919F0095
:1001500084EB90E084DFF82E8093920090939300DC
:100160004091A8005091A9006091AA007091AB0045
:100170000091A0001091A1002091A2003091A30055
:1001800084EB90E06CDF682FC4E9D0E080939400AA
:1001900099838F2D8BD292E0492E512C8EEF282EF1
:1001A0008FEF382E2C0E3D1ECDD23B014C0188EE38
:1001B00093E0A0E0B0E0680E791E8A1E9B1E80913D
:1001C000BE009091BF0090938F0080938E0080912D
:1001D000C0009091C100909391008093900080E0C6
:1001E00090E060E070E02BD280918E0090918F00C3
:1001F0002091900030919100821B930BB201E1D4C9
:10020000882777FD8095982F66D35B016C019ED37C
:100210009B01AC0160E070E084E393E4B1D220E0A4
:1002200030E040E85FE3ACD223D3DC01CB01409166
:10023000A4005091A5006091A6007091A7000091C4
:100240009C0010919D0020919E0030919F0007DF3F
:10025000F82E80939200D10111969C93C601B501AE
:10026000F4D220E030E044E353E48BD220E030E0ED
:1002700040E85FE386D2FCD2DC01CB014091A800CC
:100280005091A9006091AA007091AB000091A0006C
:100290001091A1002091A2003091A300E0DE682F10
:1002A0008093940099838F2D01D280E690E018D23C
:1002B0008091920090919300B3E0883E9B071CF4DC
:1002C0008DE790E00DD2809192009091930084365A
:1002D00091051CF48DE790E003D2809192009091FB
:1002E00093008A3091051CF48DE790E0F9D180915C
:1002F00092009091930006D28FE790E0F1D1809127
:10030000940090919500E3E0883E9E071CF48DE7F1
:1003100090E0E6D18091940090919500843691050B
:100320001CF48DE790E0DCD18091940090919500D1
:100330008A3091051CF48DE790E0D2D18091940031
:1003400090919500DFD1FED1661577058805990556
:10035000D0F32ACF24B135B1932F80E030E0282BA1
:10036000392B8091960090919700AC01440F551F56
:10037000FA01E455FF4F318320836091BC007091F6
:10038000BD0061157105E1F182309105CCF5632F57
:100390007727FA01E856FF4FA081B1819B012A1B04
:1003A0003B0B35952795359527952A0F3B1F3183B4
:1003B0002083DA01AC57BF4F4D915C911197621BBE
:1003C000730B649FF001659FF00D749FF00D112475
:1003D000E330F10574F1E1E0F0E0E827F927EE0FF2
:1003E000FF1FE254FF4F208131812F5F3F4F318348
:1003F0002083509541955F4F11965C934E9319C0A1
:1004000084309105B1F44091B8005091B900411584
:10041000510549F441E050E06CEF2038360728F0F0
:1004200040E050E002C041E050E05093B9004093FA
:10043000B800FC01E857FF4F208127B9019666E01C
:1004400070E0ABD39093970080939600089589E76E
:1004500085BD89B7806489BF81E983BD10BC83E312
:1004600089B988E18AB986E880BD8FE387BB8CEFC4
:1004700081BB81EA8FBD82E08EBD80E0FCD081E04F
:1004800061E002D180E060E0FFD081E0E1D0939AAA
:1004900080E260E212D180E060E008D11092BD00FD
:1004A0001092BC001092C4001092C3008AEA91E03E
:1004B0009093BB008093BA0084B38C7F84BB979ADF
:1004C00081E687B98FEE86B9789408951F920F92CE
:1004D0000FB60F9211242F933F934F935F936F9317
:1004E0007F938F939F93AF93BF93EF93FF9384B5C5
:1004F0008B5D84BD8091C2008F5F8093C20080912C
:10050000C200882399F48091C5009091C600A09103
:10051000C700B091C8000196A11DB11D8093C50010
:100520009093C600A093C700B093C8008091C30009
:100530009091C400009729F0E091C300F091C400AD
:100540000995FF91EF91BF91AF919F918F917F910D
:100550006F915F914F913F912F910F900FBE0F9030
:100560001F9018951F920F920FB60F9211248F9320
:100570009F93AF93BF938091C2008F5F8093C2001F
:100580008091C200882399F48091C5009091C600A3
:10059000A091C700B091C8000196A11DB11D809324
:1005A000C5009093C600A093C700B093C800BF9148
:1005B000AF919F918F910F900FBE0F901F90189544
:1005C0001F920F920FB60F9211242F933F934F93C8
:1005D0005F936F937F938F939F93AF93BF93EF93AB
:1005E000FF93E091BA00F091BB000995FF91EF9164
:1005F000BF91AF919F918F917F916F915F914F913B
:100600003F912F910F900FBE0F901F901895F89467
:1006100081E090E09093BD008093BC001092BF00F9
:100620001092BE001092C1001092C00078940895FC
:1006300081E090E09093BD008093BC00089590937A
:10064000BF008093BE007093C1006093C000089506
:10065000882311F4C09803C0813019F4C09A92988D
:100660000895833019F4C09A929A0895823011F453
:10067000C098929A089592B38295880F880F807CD3
:100680009F7B892B82BB0895882311F4662349F050
:10069000979894B3936094BB95B3936095BB88236C
:1006A00009F4A998662309F4A898089590E09BBDE1
:1006B0008ABD70E079BD68BD089592B39F7C982B88
:1006C00092BB88B38F7C682B68BB089598E09AB979
:1006D0005E9A5D9BFECF8CB95E9BFECF1AB80895E3
:1006E0001F93CF93DF93EC0110E002C01F5FEEDF9A
:1006F000FE01E10FF11D80818823C1F7DF91CF91C9
:100700001F9108950F931F93DF93CF93CDB7DEB75B
:1007100027970FB6F894DEBF0FBECDBF8E010F5FD7
:100720001F4FB8014AE050E081D2C801D9DF2796B7
:100730000FB6F894DEBF0FBECDBFCF91DF911F91F2
:100740000F9108950F931F936091C5007091C6009B
:100750008091C7009091C8002091C200982F872FE8
:10076000762F6627620F711D811D911D24E230E0F6
:1007700040E050E039D2B901CA011F910F910895AC
:100780005058BB27AA270ED034C125D130F02AD12A
:1007900020F031F49F3F11F41EF41AC10EF4E095DD
:1007A000E7FBE7C0E92F36D180F3BA17620773077A
:1007B0008407950718F071F49EF565C10EF4E09575
:1007C0000B2EBA2FA02D0B01B90190010C01CA010B
:1007D000A0011124FF27591B99F0593F50F4503EB6
:1007E00068F11A16F040A22F232F342F4427585FA8
:1007F000F3CF469537952795A795F0405395C9F7C0
:100800007EF41F16BA0B620B730B840BBAF0915077
:10081000A1F0FF0FBB1F661F771F881FC2F70EC016
:10082000BA0F621F731F841F48F4879577956795E9
:10083000B795F7959E3F08F0B3CF9395880F08F0D2
:100840009927EE0F97958795089506D180F09F37E9
:1008500040F491110EF418C160E070E080E89FE36D
:10086000089526F01B16611D711D811D88C0A2C050
:1008700004D06894B11108C10895D4D088F09F576E
:1008800090F0B92F9927B751A0F0D1F0660F771FDC
:10089000881F991F1AF0BA95C9F712C0B13081F0BC
:1008A000F2D0B1E00895EFC0672F782F8827B85FA6
:1008B00039F0B93FCCF3869577956795B395D9F71D
:1008C0003EF490958095709561957F4F8F4F9F4F27
:1008D0000895E89409C097FB3EF490958095709533
:1008E00061957F4F8F4F9F4F9923A9F0F92F96E97C
:1008F000BB279395F695879577956795B795F111F1
:10090000F8CFFAF4BB0F11F460FF1BC06F5F7F4F8D
:100910008F4F9F4F16C0882311F096E911C077239F
:1009200021F09EE8872F762F05C0662371F096E8A8
:10093000862F70E060E02AF09A95660F771F881F77
:10094000DAF7880F9695879597F9089585D080F006
:100950009F3740F491110EF097C060E070E080E89E
:100960009FEB089526F41B16611D711D811D07C0A4
:1009700021C097F99F6780E870E060E008958823C0
:1009800071F4772321F09850872B762F07C06623C8
:1009900011F499270DC09051862B70E060E02AF089
:1009A0009A95660F771F881FDAF7880F96958795B7
:1009B00097F908959F3F31F0915020F487957795EE
:1009C0006795B795880F911D9695879597F9089526
:1009D0009FEF80EC089500240A9416161706180657
:1009E0000906089500240A94121613061406050633
:1009F0000895092E0394000C11F4882352F0BB0FC4
:100A000040F4BF2B11F460FF04C06F5F7F4F8F4F26
:100A10009F4F089557FD9058440F551F59F05F3F61
:100A200071F04795880F97FB991F61F09F3F79F010
:100A300087950895121613061406551FF2CF469592
:100A4000F1DF08C0161617061806991FF1CF869514
:100A50007105610508940895E5DFA0F0BEE7B917B8
:100A600088F4BB279F3860F41616B11D672F782FC6
:100A70008827985FF7CF869577956795B11D9395F1
:100A80009639C8F30895E894BB2766277727CB01EA
:100A900097F908950BD0ADCF9EDF28F0A3DF18F0B3
:100AA000952309F066CF94CF1124EECFB3DFA0F3E6
:100AB000959FD1F3950F50E0551F629FF001729FF3
:100AC000BB27F00DB11D639FAA27F00DB11DAA1F12
:100AD000649F6627B00DA11D661F829F2227B00D5F
:100AE000A11D621F739FB00DA11D621F839FA00DEA
:100AF000611D221F749F3327A00D611D231F849F3A
:100B0000600D211D822F762F6A2F11249F57504090
:100B10008AF0E1F088234AF0EE0FFF1FBB1F661F2B
:100B2000771F881F91505040A9F79E3F510570F0E4
:100B300020CFAACF5F3FECF3983EDCF38695779504
:100B40006795B795F795E7959F5FC1F7FE2B880FDF
:100B5000911D9695879597F9089564DFE0F09E378B
:100B6000D8F09639B8F49E3848F4672F782F882744
:100B7000985FF9CF86957795679593959539D0F3DA
:100B8000B62FB1706B0F711D811D20F4879577957D
:100B900067959395F4CE0ECF77CFAA1BBB1B51E17F
:100BA00007C0AA1FBB1FA617B70710F0A61BB70BDD
:100BB000881F991F5A95A9F780959095BC01CD0182
:100BC000089597FB092E07260AD077FD04D0E5DFAC
:100BD00006D000201AF4709561957F4F0895F6F7BE
:100BE000909581959F4F0895A1E21A2EAA1BBB1BD9
:100BF000FD010DC0AA1FBB1FEE1FFF1FA217B307E9
:100C0000E407F50720F0A21BB30BE40BF50B661FFE
:100C1000771F881F991F1A9469F7609570958095C2
:100C200090959B01AC01BD01CF010895FB019F018F
:100C3000E8944230BCF04532ACF44A3029F497FBDA
:100C40001EF4909581959F4F642F7727A6DF805DD6
:100C50008A330CF0895D8193CB010097A9F716F4D4
:100C60005DE251931082C90100C0DC01FC01672FD5
:100C700071917723E1F7329704C07C916D93708373
:0E0C80006291AE17BF07C8F30895F894FFCF36
:100C8E000A0D204D6F746F72205370656564286C69
:100C9E006566747C7269676874293A2000200020AA
:0E0CAE002C20200001000100626364E56061FB
:00000001FF
