:1000000012C02BC02AC0B9C028C027C026C025C036
:1000100024C023C022C021C020C01FC01EC01DC0DC
:100020001CC01BC01AC011241FBECFE5D4E0DEBF28
:10003000CDBF10E0A0E6B0E0E2E7F4E002C005903A
:100040000D92A036B107D9F710E0A0E6B0E001C0EC
:100050001D92A336B107E1F701C0D2CFCBE5D4E0C2
:10006000DEBFCDBFEE24FF248701CC24DD24460172
:1000700096D026E982169104C1F087E9881691048A
:1000800020F48114910451F01BC020EA82169104DF
:1000900081F08CEA8816910481F012C060E2862F0C
:1000A000AFD03FEFA32EB12C0BC028ECA22EB12C69
:1000B00007C096E9A92EB12C03C060E0862FA0D01E
:1000C000CE010196EED0E114F10461F489819A81A8
:1000D0008356924038F081E0E82EF12CCE0CDF1CE4
:1000E0008E0C9F1C81E0E816F10469F489819A81E5
:1000F0008E54924040F4EE24FF240894C11CD11C7D
:100100000894811C911C0115110551F48B819C816F
:100110008356924028F001E010E00894C108D1080D
:100120000130110551F48B819C818E54924028F44A
:1001300000E010E00894C108D108882799278A199F
:100140009B09C816D9060CF46C01AC14BD040CF460
:1001500065012E2DC801800F911F280F822F5AD0C4
:100160001C141D0424F48A2D8C196A2D04C08A2DB8
:100170008C0D682F8A2D3CD07CCF1F920F920FB62A
:100180000F9211248F93809162008F5F80936200A1
:100190008F910F900FBE0F901F901895089589E1D1
:1001A00085BD8EE683BD89B7806889BF1BB81AB844
:1001B00096E890BD8FEC89B98FE387BB84EF81BB54
:1001C00081EA8FBD82E08EBD96B9979880E034D0E9
:1001D00061E0862F3CD060E0862F39D081E01AD0D4
:1001E00060E2862F0DD060E0862F02D078940895CB
:1001F00099279BBD8ABD862F992799BD88BD0895F3
:10020000982F82B38F7C892B82BB88B38F7C862BFF
:1002100088BB0895882311F4C0989298813011F416
:10022000C09A9298833011F4C09A929A823011F455
:10023000C098929A0895089522B32F7B992736E0AB
:10024000880F991F3A95E1F7282B22BB0895982F24
:10025000882311F4662339F0979884B3836084BBB4
:1002600085B3836085BB992309F4A998662309F4B3
:10027000A89808950895FC0183E487B9369A349BC1
:10028000FECF349A84B195B18083918382E487B99B
:10029000369A349BFECF349A84B195B1828393838E
:1002A0000895FC0184B38C7F84BB979A81E487B95D
:1002B000369A349BFECF349A84B195B18083918372
:1002C00080E487B9369A349BFECF349A84B195B1D5
:1002D000828393830895AC0120E088E08AB9662385
:1002E00059F05D9B07C0FA01E20FF11D80818CB9C6
:1002F0002F5F61506623A9F75E9BFECF0895DC0156
:1003000070E020E030E080E18AB94115510501F14B
:100310007617C0F4C90121E030E08417950790F406
:100320005F9B08C0FD01E70FF11D8CB180837F5FEB
:1003300020E030E0761730F4C9012F5F3F4F84177B
:10034000950770F34217530778F4872F992708957C
:10035000761750F45F9B06C0FD01E70FF11D8CB1CD
:1003600080837F5F7617B0F3862F992708958B9A45
:10037000939A84E487B98AE022D0369A349BFECFE0
:10038000349A939884B195B19C014427552760E035
:1003900070E082E090E030D0DA01C9018F57869595
:1003A0009927089593988B9885B7837F85BF8BB7DE
:1003B00080688BBF08958BB78F778BBF0895982F78
:1003C00010926200809162008917E0F308950F9304
:1003D0001F93CF93DF938C01C0E0D0E0C817D907FB
:1003E00030F488E4ECDF2196C017D107D0F3DF9119
:1003F000CF911F910F91089597FB092E05260ED0DE
:1004000057FD04D014D00AD0001C38F45095409504
:10041000309521953F4F4F4F5F4F0895F6F79095D8
:100420008095709561957F4F8F4F9F4F0895A1E202
:100430001A2EAA1BBB1BFD010DC0AA1FBB1FEE1F5E
:10044000FF1FA217B307E407F50720F0A21BB30BA9
:10045000E40BF50B661F771F881F991F1A9469F725
:1004600060957095809590959B01AC01BD01CF0181
:020470000895ED
:00000001FF
