:1000000012C02CC02BC02AC029C028C027C026C0BF
:1000100025C024C023C022C021C020C01FC01EC0D4
:100020001DC01CC01BC011241FBECFE5D4E0DEBF25
:10003000CDBF10E0A0E6B0E0ECEDF1E002C005902D
:100040000D92AA37B107D9F710E0AAE7B0E001C0D6
:100050001D92A53DB107E1F72AD0BEC0D1CF0895CA
:100060001F920F920FB60F9211242F933F934F932D
:100070005F936F937F938F939F93AF93BF93EF9310
:10008000FF938CB1893309F48AE242D0FF91EF915A
:10009000BF91AF919F918F917F916F915F914F91A0
:1000A0003F912F910F900FBE0F901F9018951DD06C
:1000B00080E690E031D0789480E790E02DD08FEF0B
:1000C00094E3ACE081509040A040E1F700C0000014
:1000D00083E790E021D08FEF94E3ACE08150904033
:1000E000A040E1F700C00000E7CF83E389B910BC6E
:1000F0001BB886E880BD88E98AB908955F9B02C075
:100100008CB1089580E008955F9BFECF8CB1089577
:100110005D9BFECF8CB90895EF92FF92CF93DF9352
:10012000E82EE7017E01F92EE70101C0F1DF899198
:100130008823E1F7DF91CF91FF90EF900895FF9230
:100140000F931F93CF93DF93EC01062FDDDFFF2486
:1001500010E026C0883011F08F3741F4FF20E9F01D
:100160001A92FA9486E790E0D7DF19C08B3149F4F0
:100170008FE697E10197F1F700C00000C5DFC4DF0B
:100180000EC02F2D332727FD3095201731072CF473
:1001900081321CF08993F39401C087E0B9DFB4DFAA
:1001A0008D30C1F61882DF91CF911F910F91FF9092
:1001B000089580917C00883060F4E0917C00F0E04C
:1001C000E358FF4F808180917C008F5F80937C009B
:0C01D000089587E09DDF0895F894FFCFAC
:1001DC00415355524F2030382072656164792100AB
:0A01EC004C200052200008200800FB
:00000001FF
