:1000000012C02CC02BC0AEC029C028C027C026C03B
:1000100025C024C023C022C021C020C01FC01EC0D4
:100020001DC01CC01BC011241FBECFE5D4E0DEBF25
:10003000CDBF11E0A0E6B0E0E6EAF1E102C0059034
:100040000D92AE38B107D9F711E0AEE8B1E001C0CA
:100050001D92AA3EB107E1F751D0A3C8D1CF28E045
:1000600088E190E00FB6F894A89581BD0FBE21BD40
:100070008FEF94E3ACE081509040A040E1F700C0E6
:10008000000008951F920F920FB60F9211241F9334
:100090002F933F934F935F936F937F938F939F9390
:1000A000AF93BF93EF93FF931CB180918E01882390
:1000B00059F0103221F480E690E0A5D1D0DF109203
:1000C0008E0180E3EDD106C0103321F481E08093EE
:1000D0008E0102C0812FE4D1FF91EF91BF91AF91CA
:1000E0009F918F917F916F915F914F913F912F9150
:1000F0001F910F900FBE0F901F90189582D068D15E
:1001000082E790E080D17894809190018823E1F398
:10011000E0918F01F0E0EE56FE4F808190918F01CB
:100120009F5F90938F012091900190918F01921782
:1001300020F010928F0110929001813311F481E030
:1001400007C0823311F480E008C0833319F480E0E3
:1001500060E004C0843321F481E061E040D0D4CF7A
:100160004ED1D2CF1F920F920FB60F9211248F93C0
:10017000809191018F5F809391018F910F900FBEBD
:100180000F901F90189590E09BBD8ABD70E079BDDF
:1001900068BD089592B39F7C982B92BB88B38F7CE7
:1001A000682B68BB0895882311F4C09803C0813080
:1001B00019F4C09A92980895833019F4C09A929ACB
:1001C0000895823011F4C098929A089592B382955E
:1001D000880F880F807C9F7B892B82BB08958823A2
:1001E00011F4662349F0979894B3936094BB95B348
:1001F000936095BB882309F4A998662309F4A8980D
:10020000089589E185BD8EE683BD89B7806889BF81
:100210001BB81AB886E880BD9FEC99B99FE397BBDD
:1002200094EF91BB91EA9FBD92E09EBD86B99798ED
:1002300080E0CCDF81E061E0D2DF80E060E0CFDF12
:1002400081E0B1DF80E260E2A5DF1BBC1ABC19BC13
:1002500018BC78940895FC0183E487B9369A349BDE
:10026000FECF349A84B195B1392F20E0280F311D8B
:100270003183208382E487B9369A349BFECF349A47
:1002800084B195B1392F20E0280F311D33832283AB
:100290000895FC0184B38C7F84BB979A81E487B96D
:1002A000369A349BFECF349A84B195B1392F20E031
:1002B000280F311D3183208380E487B9369A349B1F
:1002C000FECF349A84B195B1392F20E0280F311D2B
:1002D00033832283089528E02AB9282F392FF90182
:1002E00005C05D9BFECF81918CB961506623C9F733
:1002F0005E9BFECF089520E12AB94115510519F4FE
:10030000FC0180E021C0782FE82FF92F04C05F9B0B
:1003100008C02CB121932E2F271B2617B8F420E0FC
:1003200030E02F5F3F4FD9011197A417B50778F33D
:100330004217530758F424E5FC01208308955F9B7E
:10034000FECF9CB191938F5F8617C8F30895939861
:100350008B9885B7837F85BF8BB780688BBF0895E7
:100360008BB78F778BBF0895109291019091910177
:100370009817E0F308958B9A939A84E487B98AE0FA
:10038000F3DF369A349BFECF349A84B195B19398BB
:10039000792F60E0680F711D80E090E06ED49B01C2
:1003A000AC0160E070E080E894E444D320E030E009
:1003B00040E85FE31FD220E030E04CE752E445D252
:1003C00020E030E040E05FE3EED17DD0862F08955D
:1003D00083E389B910BC1BB886E880BD88E98AB977
:1003E00010929A011092920108955F9B02C08CB105
:1003F000089580E008955F9BFECF8CB108955D9BCA
:10040000FECF8CB90895EF92FF92CF93DF93E82E41
:10041000E7017E01F92EE70101C0F1DF8991882310
:10042000E1F7DF91CF91FF90EF900895FF920F9346
:100430001F93CF93DF93EC01062FDDDFFF2410E045
:1004400026C0883011F08F3741F4FF20E9F01A926E
:10045000FA9482E890E0D7DF19C08B3149F48FE637
:1004600097E10197F1F700C00000C5DFC4DF0EC0BF
:100470002F2D332727FD3095201731072CF481329B
:100480001CF08993F39401C087E0B9DFB4DF8D30AD
:10049000C1F61882DF91CF911F910F91FF900895BF
:1004A00080919001883060F4E0919001F0E0EE5688
:1004B000FE4F8081809190018F5F8093900108951D
:1004C00087E09DDF0895EF92FF920F931F937B01CA
:1004D0008C0120E030E040E05FE455D387FD0FC0A1
:1004E000C801B70120E030E040E05FE483D176D37B
:1004F0009B01AC01205030404040504805C0C8012D
:10050000B7016CD39B01AC01B901CA011F910F91D6
:10051000FF90EF900895A0E0B0E0E0E9F2E00EC6B1
:10052000FC01EA018081823008F438C1DB019C9132
:10053000923008F430C1843059F4943009F02EC15F
:10054000918111968C911197981709F021C126C1BC
:10055000943009F420C19230B1F4823009F01EC108
:10056000CA01AF0128E0DA010D90AD01DC010D9266
:10057000CD012150C1F7DB0111968C91119791812A
:10058000892389830AC1823009F405C1C280D380DE
:10059000DB0112966D907C90139724813581468102
:1005A00057811496ED90FD900D911C911797C601FF
:1005B000861997095C0197FF04C0AA24BB24A81AD6
:1005C000B90AB0E2AB16B1040CF061C018161906F6
:1005D0006CF5370148010A2C04C0969487947794EF
:1005E00067940A94D2F781E090E0A0E0B0E00A2C92
:1005F00004C0880F991FAA1FBB1F0A94D2F7019746
:10060000A109B1098E219F21A023B123EE24FF244B
:100610008701E3940097A105B10519F4EE24FF24A6
:100620008701E628F728082919293CC00097D1F14D
:10063000CA0CDB1C39014A010A2C04C09694879429
:10064000779467940A94D2F781E090E0A0E0B0E05C
:100650000A2C04C0880F991FAA1FBB1F0A94D2F747
:100660000197A109B10982239323A423B52321E093
:1006700030E040E050E00097A105B10519F420E01A
:1006800030E0A90126293729482959290BC06C14C3
:100690007D0424F4EE24FF24870104C0630120E0DC
:1006A00030E0A9018181FB019181891709F445C0DE
:1006B000882349F0D801C701821B930BA40BB50B0B
:1006C0009C01AD0104C02E193F09400B510B57FD91
:1006D00004C01982DB82CA820BC081E08983DB827D
:1006E000CA8250954095309521953F4F4F4F5F4FAF
:1006F0002C833D834E835F830DC0880F991FAA1FF3
:10070000BB1F8C839D83AE83BF838A819B810197AE
:100710009B838A838C819D81AE81BF819C01AD01C9
:1007200021503040404050402F3FEFEF3E07EFEF69
:100730004E07EFE35E0708F30BC08983DB82CA82B2
:100740002E0D3F1D401F511F2C833D834E835F8321
:1007500083E088832C813D814E815F8157FF1DC0DE
:10076000DA01C90181709070A070B07056954795FC
:1007700037952795822B932BA42BB52B8C839D83A8
:10078000AE83BF838A819B8101969B838A8305C048
:10079000E6E8F0E003C0FB0101C0FE01CF01CDB7E8
:1007A000DEB7EEE0E7C4A0E2B0E0E8EDF3E0CEC4EF
:1007B00069837A838B839C832D833E834F83588701
:1007C00089E0E82EF12CEC0EFD1ECE010196B7015A
:1007D000EFD38E010F5E1F4FCE010596B801E8D30F
:1007E000C701B801AE01475E5F4F95DE14D3A096F6
:1007F000E6E0C8C4A0E2B0E0EFEFF3E0A7C469838D
:100800007A838B839C832D833E834F8358878E010D
:10081000075F1F4FCE010196B801CAD391E1E92EBF
:10082000F12CEC0EFD1ECE010596B701C1D38A89CD
:1008300091E089278A8BC801B701AE01475E5F4FFF
:100840006ADEE9D2A096E6E09DC4A0E2B0E0EAE26A
:10085000F4E070C469837A838B839C832D833E8309
:100860004F835887CE010196BE01675F7F4FA0D3AB
:10087000CE010596BE016F5E7F4F9AD39985923067
:1008800078F089898230C0F0943019F4823041F4D4
:10089000CBC0843019F4923079F4C6C0923051F450
:1008A00081E02A859A89291709F480E08A87CE0198
:1008B0000996BCC0823051F481E02A859A892917B3
:1008C00009F480E08A8BCE014196B0C06D847E84AD
:1008D0008F849888ED88FE880F89188DE0E2F0E01B
:1008E00080E090E0DC01AA24BB24650120E030E038
:1008F000A901B3016170707061157105D1F02E0D01
:100900003F1D401F511F15012601280E391E4A1E8A
:100910005B1E81E090E0A0E0B0E02E153F054007AF
:10092000510718F080E090E0DC01820D931DA41DBA
:10093000B51DAA0CBB1CCC1CDD1C17FF09C061E057
:10094000262E312C412C512CA228B328C428D5287E
:10095000319749F0EE0CFF1C001F111F96948794ED
:1009600077946794C6CF6B897C89EB85FC856E0F85
:100970007F1F6E5F7F4F7C8F6B8F61E0EA857A8986
:10098000E71709F460E06A8F6B8D7C8D10C0FC0165
:10099000E170F070309729F0569547953795279577
:1009A0005068B695A795979587956F5F7F4FB7FD70
:1009B000EECF0CC0880F991FAA1FBB1F57FD816087
:1009C000220F331F441F551F615070408030E0E0FC
:1009D0009E07E0E0AE07E0E4BE0760F36B8F7C8F1C
:1009E0006FE7E62EF12C012D112DE822F9220A23C2
:1009F0001B2360E4E616F1040105110561F487FD8F
:100A00000AC0211531054105510529F0805C9F4F31
:100A1000AF4FBF4F80788D8F9E8FAF8FB8A383E08D
:100A2000898FCE01499602C086E890E0F4D1A09665
:100A3000E2E19CC3A8E1B0E0EFE1F5E083C36983A4
:100A40007A838B839C832D833E834F8358878E01CB
:100A5000075F1F4FCE010196B801AAD281E1E82EAF
:100A6000F12CEC0EFD1ECE010596B701A1D29985A1
:100A7000923008F483C08989823008F47BC02A85CB
:100A80003A8923272A87943011F0923021F498175D
:100A900009F06CC071C0843039F41D861E861F8633
:100AA000188A1C861B866AC0823019F484E0898704
:100AB00065C08B859C852B893C89821B930B9C8709
:100AC0008B872D853E854F855889ED88FE880F8957
:100AD000188D2E153F054007510738F4220F331F9C
:100AE000441F551F01979C878B876FE170E0A12CF5
:100AF000B12CC12CA0E4DA2E80E090E0DC012E15B0
:100B00003F054007510740F08A299B29AC29BD29A0
:100B10002E193F09400B510BD694C794B794A79454
:100B2000220F331F441F551F6150704041F76FE77C
:100B3000E62EF12C012D112DE822F9220A231B2388
:100B400060E4E616F1040105110561F487FD0AC0B1
:100B5000211531054105510529F0805C9F4FAF4FAC
:100B6000BF4F80788D879E87AF87B88B8E01075FD8
:100B70001F4F04C0870102C006E810E0C8014BD136
:100B80006896EAE0FBC2A8E1B0E0E8ECF5E0DEC27E
:100B900069837A838B839C832D833E834F8358871D
:100BA0008E01075F1F4FCE010196B80101D281E18E
:100BB000E82EF12CEC0EFD1ECE010596B701F8D102
:100BC0008985823038F08989823020F0C801B701E8
:100BD00058D201C08FEF6896E6E0D4C2ACE0B0E036
:100BE000E3EFF5E0B7C269837A838B839C83CE0100
:100BF0000196BE016B5F7F4FDBD18D81823081F129
:100C0000823070F1843021F48E81882369F10AC02A
:100C10002F81388537FD24C06E812F3131053CF09E
:100C2000662311F120E030E040E050E821C08EE181
:100C300090E0821B930B29853A854B855C8504C027
:100C400056954795379527958A95D2F7662381F073
:100C500050954095309521953F4F4F4F5F4F08C0BD
:100C600020E030E0A90104C02FEF3FEF4FEF5FE736
:100C7000B901CA012C96E2E089C2A8E0B0E0E2E442
:100C8000F6E062C27B018C011A8261157105810553
:100C9000910519F482E089835EC083E089838EE147
:100CA000C82ED12CDC82CB82ED82FE820F83188786
:100CB000C801B70156D0FC013197F7FF3AC0AA2707
:100CC000BB27AE1BBF0B21E030E040E050E00A2E16
:100CD00004C0220F331F441F551F0A94D2F721501E
:100CE0003040404050402E213F214023512361E0BD
:100CF00070E080E090E0211531054105510519F4BF
:100D000060E070E0CB0104C016950795F794E79476
:100D1000AA95D2F7E62AF72A082B192BED82FE8234
:100D20000F8318878EE190E08E1B9F0B9C838B8333
:100D300012C0309781F00E2E04C0EE0CFF1C001F75
:100D4000111F0A94D2F7ED82FE820F831887CE1A04
:100D5000DF0ADC82CB82CE0101965DD02896E8E0E6
:100D60000FC2AF92BF92CF92DF92EF92FF920F939A
:100D70001F937B018C0180E0E81680E0F80681E09B
:100D8000080780E0180758F4EFEFEE16F1040105AC
:100D9000110509F090F480E090E0DC0117C0F0E06C
:100DA000EF16F0E0FF06F0E00F07F1E01F0750F448
:100DB00080E190E0A0E0B0E009C088E090E0A0E031
:100DC000B0E004C088E190E0A0E0B0E020E230E0D4
:100DD00040E050E0281B390B4A0B5B0B57016801C0
:100DE00004C0D694C794B794A7948A95D2F7D60135
:100DF000C50182579F4FFC018081281B31094109A1
:100E00005109C9011F910F91FF90EF90DF90CF9092
:100E1000BF90AF900895EF92FF920F931F93CF93DF
:100E2000DF93FC0124813581468157816181808176
:100E3000823020F44061EFEFF0E0A3C0843009F489
:100E40009BC0823009F492C021153105410551053E
:100E500009F48FC00280F381E02D8FEFE238F807AC
:100E60000CF05AC0C2E8DFEFCE1BDF0BCA31D10550
:100E70006CF579018A010C2E04C016950795F7943C
:100E8000E7940A94D2F781E090E0A0E0B0E00C2E65
:100E900004C0880F991FAA1FBB1F0A94D2F701979D
:100EA000A109B10982239323A423B52321E030E0D3
:100EB00040E050E00097A105B10519F420E030E0D2
:100EC000A9012E293F29402B512B03C020E030E0FF
:100ED000A901DA01C9018F779070A070B0708034D9
:100EE0009105A105B10539F427FF09C0205C3F4FEA
:100EF0004F4F5F4F04C0215C3F4F4F4F5F4FE1E0CA
:100F0000F0E0203080E0380780E0480780E45807B0
:100F100028F5E0E0F0E022C0E038F1056CF5E1589A
:100F2000FF4FDA01C9018F779070A070B0708034E4
:100F30009105A105B10539F427FF09C0205C3F4F99
:100F40004F4F5F4F04C0215C3F4F4F4F5F4F57FFE4
:100F500005C05695479537952795319687E0569564
:100F60004795379527958A95D1F70BC0E0E0F0E0DB
:100F700005C0E0E0F0E005C0EFEFF0E020E030E099
:100F8000A9018E2F879588278795942F9F7767953E
:100F900066276795E695E22EA92FA82BFE2FF62B44
:100FA000622F732F8A2F9F2FCDB7DEB7E6E0EAC0FE
:100FB000DC01FB012C9111963C91119712968C91BA
:100FC0001297482F4F7750E0982F991F9927991F14
:100FD00013966C911397862F880F892B90E0661FCC
:100FE0006627661F6183009739F521153105410594
:100FF000510511F482E029C082E89FEF9383828338
:1010000067E0220F331F441F551F6A95D1F783E015
:10101000808309C0220F331F441F551F8281938193
:10102000019793838283203080E0380780E048076F
:1010300080E4580778F320C08F3F910579F421159B
:1010400031054105510519F484E08083089544FF7A
:1010500003C081E0808310C010820EC08F57904083
:101060009383828383E0808387E0220F331F441FB2
:10107000551F8A95D1F7506424833583468357835F
:101080000895FC01DB019081923008F449C08C91F5
:10109000823008F445C0943051F461818430B1F558
:1010A00011962C91119730E0261B310941C08430F4
:1010B00021F0923041F48230B1F111968C91119768
:1010C0008823A1F12DC06181823001F111968C91AC
:1010D00011976817D9F42281338112968D919C91D2
:1010E00013978217930794F028173907BCF02481CF
:1010F00035814681578114968D919D910D90BC91BB
:10110000A02D82179307A407B50718F4662341F0B2
:101110000DC0281739074A075B0728F4662331F00A
:1011200021E030E005C020E030E002C02FEF3FEFCB
:10113000C90108952F923F924F925F926F927F92D2
:101140008F929F92AF92BF92CF92DF92EF92FF92D7
:101150000F931F93CF93DF93CDB7DEB7CA1BDB0B83
:101160000FB6F894DEBF0FBECDBF09942A88398828
:1011700048885F846E847D848C849B84AA84B9842F
:10118000C884DF80EE80FD800C811B81AA81B9813B
:10119000CE0FD11D0FB6F894DEBF0FBECDBFED014F
:0611A0000895F894FFCF52
:1011A6000D0A2A2A2A205245534554202A2A2A0D56
:1011B6000A00415355524F203038207265616479D8
:1011C60021000820080000000000000000000001C7
:1011D60002020303030304040404040404040505CF
:1011E60005050505050505050505050505050606A7
:1011F6000606060606060606060606060606060689
:101206000606060606060606060606060606070776
:101216000707070707070707070707070707070758
:101226000707070707070707070707070707070748
:101236000707070707070707070707070707070738
:101246000707070707070707070707070707080826
:101256000808080808080808080808080808080808
:1012660008080808080808080808080808080808F8
:1012760008080808080808080808080808080808E8
:1012860008080808080808080808080808080808D8
:1012960008080808080808080808080808080808C8
:1012A60008080808080808080808080808080808B8
:1012B60008080808080808080808080808080808A8
:0E12C6000808080808080808080808080808AA
:00000001FF
