:1000000012C02BC02AC081C028C027C026C025C06E
:1000100024C023C022C021C020C01FC01EC01DC0DC
:100020001CC01BC01AC011241FBECFE5D4E0DEBF28
:10003000CDBF10E0A0E6B0E0E6E1FAE002C0059036
:100040000D92AA36B107D9F710E0AAE6B0E001C0D8
:100050001D92AD36B107E1F701C0D2CFC3E3D1E0C5
:10006000DEBFCDBF64D060E2862F92D060EA862FDB
:1000700087D007EE13E088E46AD10150104017FFE3
:10008000FACFEE24FF2407EC10E06E010894C11CA7
:10009000D11CC6018E0D9F1DCCD00150104084E0B4
:1000A00090E0E80EF91E17FFF0CF60E0862F68D0D1
:1000B00076018DE1C82E83E0D82ECC0EDD1EF7012F
:1000C000828193819F938F93808191819F938F935E
:1000D00080E690E09F938F938E010F5D1C4F1F93DE
:1000E0000F9352D16CE0C801BED08DB79EB7089671
:1000F0000FB6F8949EBF0FBE8DBFE4E0F0E0EE0EA9
:10010000FF1ECE14DF04DCF6FFCF1F920F920FB656
:100110000F9211248F9380916C008F5F80936C00FD
:100120008F910F900FBE0F901F901895089589E141
:1001300085BD8EE683BD89B7806889BF1BB81AB8B4
:1001400096E890BD8FEC89B98FE387BB84EF81BBC4
:1001500081EA8FBD82E08EBD96B9979880E034D059
:1001600061E0862F3CD060E0862F39D081E01AD044
:1001700060E2862F0DD060E0862F02D0789408953B
:1001800099279BBD8ABD862F992799BD88BD089563
:10019000982F82B38F7C892B82BB88B38F7C862B70
:1001A00088BB0895882311F4C0989298813011F487
:1001B000C09A9298833011F4C09A929A823011F4C6
:1001C000C098929A0895089522B32F7B992736E01C
:1001D000880F991F3A95E1F7282B22BB0895982F95
:1001E000882311F4662339F0979884B3836084BB25
:1001F00085B3836085BB992309F4A998662309F424
:10020000A89808950895FC0183E487B9369A349B31
:10021000FECF349A84B195B18083918382E487B90B
:10022000369A349BFECF349A84B195B182839383FE
:100230000895FC0184B38C7F84BB979A81E487B9CD
:10024000369A349BFECF349A84B195B180839183E2
:1002500080E487B9369A349BFECF349A84B195B145
:10026000828393830895AC0120E088E08AB96623F5
:1002700059F05D9B07C0FA01E20FF11D80818CB936
:100280002F5F61506623A9F75E9BFECF0895DC01C6
:1002900070E020E030E080E18AB94115510501F1BC
:1002A0007617C0F4C90121E030E08417950790F477
:1002B0005F9B08C0FD01E70FF11D8CB180837F5F5C
:1002C00020E030E0761730F4C9012F5F3F4F8417EC
:1002D000950770F34217530778F4872F99270895ED
:1002E000761750F45F9B06C0FD01E70FF11D8CB13E
:1002F00080837F5F7617B0F3862F992708958B9AB6
:10030000939A84E487B98AE022D0369A349BFECF50
:10031000349A939884B195B19C014427552760E0A5
:1003200070E082E090E003D3DA01C9018F5786952F
:100330009927089593988B9885B7837F85BF8BB74E
:1003400080688BBF08958BB78F778BBF0895982FE8
:1003500010926C0080916C008917E0F308950F9360
:100360001F93CF93DF938C01C0E0D0E0C817D9076B
:1003700030F488E4ECDF2196C017D107D0F3DF9189
:10038000CF911F910F910895ACE0B0E0E9ECF1E05E
:1003900019C30B891C892D893E8986E08C830983CA
:1003A0001A838FEF9FE78D839E83AE01495E5F4F77
:1003B000B901CE0101960BD09C018F819885080F61
:1003C000191FF8011082C901E4E02C9617C3A2E1BD
:1003D000B0E0ECEEF1E0E8C2AA24BB2465014C01D8
:1003E0006D877E874F87588B44245524FC014682B5
:1003F0005782838181FD54C28FEF9FEF68C240FE18
:100400003EC2862D80538A30E0F4F0E36F1641F44B
:100410002A89222329F4772019F480E091E08BC007
:100420008AE09A89989F902D1124892F860D8053F8
:100430008A8B882314F4EFE7EA8B43FC31C27A8875
:100440002FC243FE05C0FA89FF2311F421E02A8B55
:10045000862D992787FD90958836910554F5853628
:1004600091050CF06BC08835910509F4DBC0893526
:100470009105B4F48B32910509F442C08C32910598
:1004800044F48032910509F43FC0839709F442C0D7
:10049000EDC18D329105D9F18E9709F440C0E6C1C6
:1004A0008336910509F454C08436910509F480C05F
:1004B000DDC18037910509F4ADC08137910584F421
:1004C0008C369105B1F18D3691052CF48936910564
:1004D00009F46EC0CBC18F36910509F498C0C6C12E
:1004E0008537910509F4A0C08637910524F4833738
:1004F0009105B9F1BBC18837910509F493C0B6C124
:1005000080E190E0482A592AE0E2F0E005C080E866
:1005100090E011C0E0E4F0E04E2A5F2AC1C188E01B
:1005200090E0482A592AEFEFFEEF4E225F221A8A06
:10053000B7C184E090E0482A592AB2C10F2EFFE3E8
:10054000AF2EF02D7A940F2EF3E66F2EF02D3AC1D8
:10055000EF85F889CF0102968F87988BA0807A94D7
:1005600031C1EF85F889CF0102968F87988BA080E3
:10057000B180198AF5018081882349F099899F5FAC
:10058000998BF501E90FF11D80818823B9F743FEAE
:100590000CC04A89242F332727FD3095E9898E2FF7
:1005A0009927281739070CF4498BF9897F1A0AC152
:1005B00042FE0BC0EF85F889CF0104968F87988B98
:1005C00020813181428153810DC0EF85F889CF01AF
:1005D00002968F87988B808191819C01442737FDFB
:1005E0004095542F59016A01552364F4E2E0F0E08C
:1005F0004E2A5F2AD094C094B094A094A11CB11C40
:10060000C11CD11C8FEB9FEF482259222BC098E0D0
:10061000998B0AC0E0E4F0E04E2A5F2A0F2EF8E73B
:100620006F2EF02DF0E1F98B42FE0BC0EF85F889BB
:10063000CF0104968F87988B20813181428153812D
:100640000BC0EF85F889CF0102968F87988B808148
:1006500091819C014427552759016A01EFECFFEF76
:100660004E225F221E010894211C311CF989EF2EB5
:10067000FF2400271127C601B501A801970172D1F7
:10068000DC01CB01F10180838A301CF0860D8152A0
:1006900003C0F1018081805DF10181931F01C601DA
:1006A000B501A80197015ED159016A0121153105F3
:1006B0004105510501F7CE010196A22CA81AC201ED
:1006C00082739070892B09F07A9446FE0FC0872DB3
:1006D000992787FD9095F989F03131F40F2EFEEFBF
:1006E0007F2EF02D780E02C0782E7A9443FE12C031
:1006F0004A89242F332727FD30958A2D9927821781
:1007000093072CF087EF9FEF4822592203C09A8964
:100710009A199A8B43FE03C0EA897E1A01C07A189F
:10072000C20180789170892B61F4872D7A94181614
:1007300044F4B40180E290E0CDD0872D7A9418166D
:10074000C4F341FE04C0B4018DE290E00BC044FE4E
:1007500004C0B4018BE290E005C045FE04C0B401C2
:1007600080E290E0B7D046FE0DC0B40180E390E097
:10077000B1D0F989F03131F4862D992787FD909514
:10078000B401A8D050FE0CC0872D7A94181644F4FA
:10079000B40180E390E09ED0872D7A941816C4F3BC
:1007A00043FE10C08A89282F21502A8B181654F432
:1007B000B40180E390E08ED08A89482F41504A8B63
:1007C0001816B4F3842D807861F4872D7A94181666
:1007D00044F4B40180E290E07DD0872D7A9418161D
:1007E000C4F383E6681639F48A2D992787FD90951E
:1007F000B40170D02BC093E76916A9F4E989E150E0
:10080000E98BEF3F19F1F5018081992787FD9095DC
:100810000894A11CB11CB4015DD0F989F150F98B89
:10082000FF3F89F713C0CE0101962816390671F0F3
:100830008E010F5F1F4FF10182911F01992787FDE4
:100840009095B40147D020163106A9F7842D807801
:1008500099F0872D7A9418167CF4B40180E290E028
:1008600039D0872D7A941816C4F306C0862D99279F
:1008700087FD9095B4012ED04424552411C0F5E293
:100880006F1641F44424552443941A8A7A882AE046
:10089000298B06C0862D992787FD9095B4011AD023
:1008A000F401838183FF08C0ED85FE85CF010196A9
:1008B0008D879E87649005C0ED85FE856190ED87EC
:1008C000FE87662009F09BCDF40186819781E2E1E5
:1008D000629686C00F931F93CF93DF938C01EB0139
:1008E0008B81992781FF1CC082FF0DC02E813F8123
:1008F0008C819D812817390764F4E881F98101937F
:10090000E883F98306C0E885F985802F0995892B4E
:1009100039F48E819F8101968E839F83C80102C026
:100920008FEF9FEFDF91CF911F910F91089597FB6C
:10093000092E05260ED057FD04D014D00AD0001C75
:1009400038F450954095309521953F4F4F4F5F4F6C
:100950000895F6F790958095709561957F4F8F4F2C
:100960009F4F0895A1E21A2EAA1BBB1BFD010DC0CB
:10097000AA1FBB1FEE1FFF1FA217B307E407F5074F
:1009800020F0A21BB30BE40BF50B661F771F881F2B
:10099000991F1A9469F760957095809590959B01C1
:1009A000AC01BD01CF0108952F923F924F925F920B
:1009B0006F927F928F929F92AF92BF92CF92DF926F
:1009C000EF92FF920F931F93CF93DF93CDB7DEB7D4
:1009D000CA1BDB0B0FB6F894DEBF0FBECDBF099468
:1009E0002A88398848885F846E847D848C849B84BF
:1009F000AA84B984C884DF80EE80FD800C811B81CD
:100A0000AA81B981CE0FD11D0FB6F894DEBF0FBEFB
:060A1000CDBFED010895C9
:0A0A1600253464092534640A0D003C
:00000001FF
