:1000000012C02BC02AC0C9C028C027C026C025C026
:1000100024C023C022C021C020C01FC01EC01DC0DC
:100020001CC01BC01AC011241FBECFE5D4E0DEBF28
:10003000CDBF10E0A0E6B0E0E0EEF4E002C0059035
:100040000D92A036B107D9F710E0A0E6B0E001C0EC
:100050001D92A336B107E1F721C0D2CFFC0183EC9A
:1000600087B9369A349BFECF349A24B185B199274B
:10007000982F8827820F911D8083918382EC87B906
:10008000369A349BFECF349A24B185B19927982FA4
:100090008827820F911D828393830895CBE5D4E056
:1000A000DEBFCDBF8CD08E98969A60E2862FB8D0F6
:1000B000CC24DD247601CE010196D0DF869904C0E0
:1000C000C980DA80EB80FC8089819A81C816D906C4
:1000D00028F48C199D0989839A8302C019821A8297
:1000E0004E010894811C911C8B819C81E816F906B5
:1000F00028F48E199F098B839C8302C01B821C826B
:1001000009811A81F40182819381080F191F053139
:100110001105D4F181E08ED0ECE8AE2EB12C013582
:1001200011052CF083E086D078ECA72EB12C093C89
:1001300011052CF082E07ED06FEFA62EB12C298124
:100140003A81F40182819381281B390B55E0220FFB
:10015000331F5A95E1F7C901B8015ED165307105C9
:100160002CF060E081E083D06A2D14C06C5F7F4F7B
:100170002CF461E080E07BD060E004C060E0862F7A
:1001800076D06A2D8A2D07C080E054D060E0862F9B
:100190006ED060E080E03CD08ECF1F920F920FB601
:1001A0000F9211248F93809162008F5F8093620081
:1001B0008F910F900FBE0F901F901895089589E1B1
:1001C00085BD8EE683BD89B7806889BF1BB81AB824
:1001D00096E890BD8FEC89B98FE387BB84EF81BB34
:1001E00081EA8FBD82E08EBD96B9979880E034D0C9
:1001F00061E0862F3CD060E0862F39D081E01AD0B4
:1002000060E2862F0DD060E0862F02D078940895AA
:1002100099279BBD8ABD862F992799BD88BD0895D2
:10022000982F82B38F7C892B82BB88B38F7C862BDF
:1002300088BB0895882311F4C0989298813011F4F6
:10024000C09A9298833011F4C09A929A823011F435
:10025000C098929A0895089522B32F7B992736E08B
:10026000880F991F3A95E1F7282B22BB0895982F04
:10027000882311F4662339F0979884B3836084BB94
:1002800085B3836085BB992309F4A998662309F493
:10029000A89808950895FC0183E487B9369A349BA1
:1002A000FECF349A84B195B18083918382E487B97B
:1002B000369A349BFECF349A84B195B1828393836E
:1002C0000895FC0184B38C7F84BB979A81E487B93D
:1002D000369A349BFECF349A84B195B18083918352
:1002E00080E487B9369A349BFECF349A84B195B1B5
:1002F000828393830895AC0120E088E08AB9662365
:1003000059F05D9B07C0FA01E20FF11D80818CB9A5
:100310002F5F61506623A9F75E9BFECF0895DC0135
:1003200070E020E030E080E18AB94115510501F12B
:100330007617C0F4C90121E030E08417950790F4E6
:100340005F9B08C0FD01E70FF11D8CB180837F5FCB
:1003500020E030E0761730F4C9012F5F3F4F84175B
:10036000950770F34217530778F4872F992708955C
:10037000761750F45F9B06C0FD01E70FF11D8CB1AD
:1003800080837F5F7617B0F3862F992708958B9A25
:10039000939A84E487B98AE022D0369A349BFECFC0
:1003A000349A939884B195B19C014427552760E015
:1003B00070E082E090E043D0DA01C9018F57869562
:1003C0009927089593988B9885B7837F85BF8BB7BE
:1003D00080688BBF08958BB78F778BBF0895982F58
:1003E00010926200809162008917E0F308950F93E4
:1003F0001F93CF93DF938C01C0E0D0E0C817D907DB
:1004000030F488E4ECDF2196C017D107D0F3DF91F8
:10041000CF911F910F91089597FB092E07260AD0BF
:1004200077FD04D027D006D000201AF4709561958E
:100430007F4F0895F6F7909581959F4F089597FB0C
:10044000092E05260ED057FD04D028D00AD0001C56
:1004500038F450954095309521953F4F4F4F5F4F61
:100460000895F6F790958095709561957F4F8F4F21
:100470009F4F0895AA1BBB1B51E107C0AA1FBB1FBA
:10048000A617B70710F0A61BB70B881F991F5A9520
:10049000A9F780959095BC01CD010895A1E21A2E8F
:1004A000AA1BBB1BFD010DC0AA1FBB1FEE1FFF1F18
:1004B000A217B307E407F50720F0A21BB30BE40B68
:1004C000F50B661F771F881F991F1A9469F76095AF
:1004D0007095809590959B01AC01BD01CF01089569
:00000001FF
