:1000000015C02EC02DC03EC02BC02AC029C028C09C
:1000100027C026C025C024C023C022C021C020C0C4
:100020001FC01EC01DC0415355524F0011241FBE9A
:10003000CFE5D4E0DEBFCDBF10E0A0E6B0E0E6E95A
:10004000F8E002C005900D92AA36B107D9F710E08A
:10005000AAE6B0E001C01D92AB36B107E1F701C0DE
:10006000CFCFCFE5D4E0DEBFCDBF1DD08FE068D2CB
:1000700080E690E092D261E083E07CD286E290E07C
:1000800099D2FFCF1F920F920FB60F9211248F9328
:1000900080916A008F5F80936A008F910F900FBEEE
:1000A0000F901F90189589E185BD8EE683BD89B7B5
:1000B000806889BF1BB81AB896E890BD8FEC89B9E3
:1000C0008FE387BB84EF81BB81EA8FBD82E08EBD69
:1000D00096B9979880E033D061E0862F3BD060E0FE
:1000E000862F38D081E01AD060E2862F0DD060E0F4
:1000F000862F02D07894089599279BBD8ABD862FBC
:10010000992799BD88BD0895982F82B38F7C892B3C
:1001100082BB88B38F7C862B88BB0895882311F41B
:10012000C0989298813011F4C09A9298833011F45B
:10013000C09A929A823011F4C098929A089522B38C
:100140002F7B992736E0880F991F3A95E1F7282BE6
:1001500022BB0895982F882311F4662339F09798CD
:1001600084B3836084BB85B3836085BB992309F422
:10017000A998662309F4A8980895FC0183E487B937
:10018000369A349BFECF349A24B185B19927982FA3
:100190008827820F911D8083918382E487B9369AE4
:1001A000349BFECF349A24B185B19927982F8827A4
:1001B000820F911D828393830895FC0184B38C7F09
:1001C00084BB979A81E487B9369A349BFECF349AE0
:1001D00024B185B19927982F8827820F911D80839C
:1001E000918380E487B9369A349BFECF349A24B148
:1001F00085B19927982F8827820F911D8283938339
:100200000895AC0120E088E08AB9662359F05D9B2F
:1002100007C0FA01E20FF11D80818CB92F5F615098
:100220006623A9F75E9BFECF20E060E06E5F6E3F25
:10023000E8F32F5F2E3FC8F30895DC0170E020E063
:1002400030E080E18AB94115510501F17617C0F41B
:10025000C90121E030E08417950790F45F9B08C046
:10026000FD01E70FF11D8CB180837F5F20E030E05E
:10027000761730F4C9012F5F3F4F8417950770F34D
:100280004217530778F484E58C930895761750F459
:100290005F9B06C0FD01E70FF11D8CB180837F5F7E
:1002A0007617B0F308950F931F938B9A939A84E473
:1002B00087B98AE056D0369A349BFECF349A24B15F
:1002C00085B19927182F0027020F111D9398C80197
:1002D000AA2797FDA095BA2FBC01CD0142D217FFE6
:1002E00005C020E030E040E857E48ED19B01AC012E
:1002F00060E070E080E894E4D1D1DC01CB0120E043
:1003000030E040E85FE3BC01CD017DD1DC01CB01F1
:1003100020E030E04CE752E4BC01CD016ED2DC01BC
:10032000CB0120E030E040E05FE3BC01CD016CD1C7
:10033000DC01CB01BC01CD01F7D1DC01CB01992758
:100340001F910F91089593988B988B9885B7837F11
:1003500085BF8BB780688BBF08958BB78F778BBFB6
:100360000895982F10926A0080916A008917E0F32F
:100370000895CF93DF93CDB7DEB721970FB6F894EA
:10038000DEBF0FBECDBF19828981833030F48981F1
:100390008F5F898389818330D0F321960FB6F894DB
:1003A000DEBF0FBECDBFDF91CF910895A298A39875
:1003B000AA98AB9808951F93182FA29ADADF812F7D
:1003C0001AD099271F9108951F93182FA39AD1DF50
:1003D000A298CFDFA398CDDFA29ACBDF812F0BD0DD
:1003E00099271F910895A39AA29AC3DFA398C1DF0A
:1003F000A298BFDF08950F931F93CF93DF93082F29
:1004000017E0C7E0D0E0A39A802F99270C2E02C0F6
:10041000959587950A94E2F780FF02C0A29801C0E3
:10042000A29AA7DFA398A5DF1150219717FFEBCF62
:10043000A39AA2989EDFA3989B9BFECF83B3992794
:100440009C012470307082FF03C081E090E001C005
:10045000C901DF91CF911F910F9108950F931F93C1
:10046000CF93082F10E0C7E0A39AA29882DFA39849
:1004700080DF110F9A991160C150C7FFF5CFA39A81
:10048000002311F4A29801C0A29A73DFA3989B9B4A
:10049000FECF6FDF812F9927CF911F910F91089584
:1004A0001F93182F80E487DF812FA5DF9CDF1F912A
:1004B00008951F93182F80916800992743E0880FB3
:1004C000991F4A95E1F7812BEBDF8091680099270E
:1004D00033E0880F991F3A95E1F7812B8460E0DFC4
:1004E00080916800992723E0880F991F2A95E1F7EA
:1004F000182B812FD5DF1F9108951F93182F807F10
:10050000D8DF1295107F812FD4DF1F9108951F939C
:10051000182F807F8160CDDF812F992754E0880FCD
:10052000991F5A95E1F78160C4DF1F910895809566
:10053000817080936800880F880F880FB1DF08955D
:100540000F931F93082F32DF89E085BD81B38B7B2A
:1005500081BBBB9811E01093680088E2AADF88E2B3
:10056000CCDF802FCADF812FC8DF86E0C6DF1F9176
:100570000F910895982F662311F4905801C090545C
:10058000892FBBDF089581E0B8DF82E5EADE0895B8
:1005900082E0B3DF82E5E5DE0895CF93DF93EC01DF
:1005A0008991882321F0B3DF89918823E1F7DF91D6
:1005B000CF910895CF93DF93EC01FC0121968491B4
:1005C000882331F0A4DFFE01219684918823D1F79E
:1005D000DF91CF9108951F93CF93DF93EB0199277C
:1005E00063E0880F991F6A95E1F7806486DF10E069
:1005F000FE01219684918BDF1F5F1830C8F3DF91D5
:10060000CF911F9108955058192ED5D001D0B8C060
:10061000BA176207730784079507B1F188F40EF4DF
:1006200010940B2EBA2FA02D062E622F202D072EF0
:10063000732F302D082E842F402D092E952F502DED
:10064000FF275523B9F0591B49F0573E98F04695BE
:1006500037952795A795F0405395C9F776F0BA0FCF
:10066000621F731F841F30F4879577956795B79540
:10067000F040939517FA0F2E0895BF1BBB27BA0BB6
:10068000620B730B840BF6CFDEF6B1C0592F482FE7
:10069000372F262F9FE380E8772766278CD001D05D
:1006A0006FC0552359F0992369F09F575F57951BE9
:1006B00033F442F4903811F4915805C079C0915840
:1006C0009F3F09F494C0BB27112462177307840766
:1006D00030F4660F771F881FBB1F915098F311D01D
:1006E0000F920FD00F920DD0A0E8261737074807BA
:1006F0001B0609F0A048BA2F602D7F918F9100242E
:100700000895A0E80024621773078407B10528F054
:10071000621B730B840BB1090A2A660F771F881FAF
:10072000BB1FA69581F7089597FB51D09F3738F0EE
:10073000FEE9F91B982F872F762F6B2F05C054C029
:100740009695879577956795F150D0F73EF49095FB
:100750008095709561957F4F8F4F9F4F0895E894D6
:1007600003C097FB0EF4F3DFB62F672F782F892F86
:100770009EE9002405C09A95BB0F661F771F881F4E
:1007800011249923A1F08823B2F79F3F59F0BB0FA2
:1007900048F421F4002011F460FF04C06F5F7F4F24
:1007A0008F4F9F4F881F9795879597F908951CC085
:1007B0009FEF80EC0895052E092607FA440F551F78
:1007C0005F3F79F0AA27A51708F051E04795880FF9
:1007D000991F9F3F31F0BB27B91708F091E087952B
:1007E00008959F919F91E4CF6627772788279927BF
:1007F0000895592F482F372F262FDDDF01D0C0CF86
:10080000992339F0552329F09F575F57950F13F41B
:10081000CAF1EDCF91589F3FE1F3A62F0024112498
:10082000BB2766275527F8E0A69520F4020E131E75
:10083000B41F651F220F331F441F551FFA95A1F7E0
:10084000F8E0E72F7727F8E0E69520F4130EB41FC1
:10085000651F7A1F330F441F551FAA1FFA95A1F772
:10086000F82F8827F69520F4B40F651F7A1F8E1F86
:10087000440F551FAA1FEE1FFF23A1F788231AF468
:10088000939539F495CF000C111CBB1F661F771F81
:06089000881F01280895F5
:0A0896004963682062696E000100EA
:00000001FF
