:1000000012C02CC02BC070C123C128C027C026C07D
:1000100025C024C023C022C021C020C093C11EC05F
:100020001DC01CC01BC011241FBECFE5D4E0DEBF25
:10003000CDBF10E0A0E6B0E0E8E7F5E002C0059033
:100040000D92A039B107D9F710E0A0E9B0E001C0E6
:100050001D92A33BB107E1F702D08CC2D1CF0F9321
:100060001F93DF93CF9300D000D0CDB7DEB7B1D0D0
:1000700081E0CED18E010F5F1F4FC8018AD180E68B
:1000800090E0FBD189819A818436910518F48EE73E
:1000900090E0F3D189819A818A30910518F48EE736
:1000A00090E0EBD189819A81FAD180E890E0E5D1A6
:1000B0008B819C818436910518F48EE790E0DDD128
:1000C0008B819C818A30910518F48EE790E0D5D120
:1000D0008B819C81E4D1D1CF24B135B1932F80E0C5
:1000E00030E0282B392B8091900090919100AC0149
:1000F000440F551FFA01EA56FF4F31832083609168
:10010000A6007091A70061157105E1F1823091059B
:10011000CCF5632F7727FA01EE56FF4FA081B1810E
:100120009B012A1B3B0B35952795359527952A0F63
:100130003B1F31832083DA01AB57BF4F4D915C9158
:100140001197621B730B649FF001659FF00D749F04
:10015000F00D1124E330F10574F1E1E0F0E0E8275F
:10016000F927EE0FFF1FE855FF4F208131812F5FE8
:100170003F4F31832083509541955F4F11965C939B
:100180004E9319C084309105B1F44091A200509172
:10019000A3004115510549F441E050E06CEF2038CF
:1001A000360728F040E050E002C041E050E05093B4
:1001B000A3004093A200FC01E757FF4F208127B91D
:1001C000019666E070E093D1909391008093900047
:1001D000089589E785BD89B7806489BF81E983BDBA
:1001E00010BC83E389B988E18AB986E880BD8FE3D2
:1001F00087BB8CEF81BB81EA8FBD82E08EBD80E042
:1002000007D181E061E00DD180E060E00AD181E0BA
:10021000ECD0939A80E260E21DD180E060E013D1DF
:100220001092A7001092A6001092AE001092AD009E
:100230008CE690E09093A5008093A40084B38C7F1B
:1002400084BB979A81E687B98FEE86B97894089532
:100250001F920F920FB60F9211242F933F934F933B
:100260005F936F937F938F939F93AF93BF93EF931E
:10027000FF9384B58B5D84BD8091AC008F5F8093CC
:10028000AC008091AC00882399F48091AF009091EC
:10029000B000A091B100B091B2000196A11DB11DB6
:1002A0008093AF009093B000A093B100B093B200E0
:1002B0008091AD009091AE00009729F0E091AD00E3
:1002C000F091AE000995FF91EF91BF91AF919F9191
:1002D0008F917F916F915F914F913F912F910F90EF
:1002E0000FBE0F901F9018951F920F920FB60F928E
:1002F00011248F939F93AF93BF938091AC008F5F36
:100300008093AC008091AC00882399F48091AF0079
:100310009091B000A091B100B091B2000196A11DE2
:10032000B11D8093AF009093B000A093B100B09343
:10033000B200BF91AF919F918F910F900FBE0F9020
:100340001F9018951F920F920FB60F9211242F93A2
:100350003F934F935F936F937F938F939F93AF934D
:10036000BF93EF93FF93E091A400F091A50009954E
:10037000FF91EF91BF91AF919F918F917F916F917D
:100380005F914F913F912F910F900FBE0F901F9053
:100390001895CF93DF93EC0183E090E060E070E08C
:1003A0000CD09983888382E090E060E070E005D013
:1003B0009B838A83DF91CF910895CF93DF93EC01E4
:1003C000CB01009709F08BD0F894CC0FDD1FCA56F3
:1003D000DF4F28813981789486E0369527958A9574
:1003E000E1F7C901DF91CF910895882311F4C098F6
:1003F00003C0813019F4C09A92980895833019F49B
:10040000C09A929A0895823011F4C098929A0895F1
:1004100092B38295880F880F807C9F7B892B82BB4B
:100420000895882311F4662349F0979894B3936054
:1004300094BB95B3936095BB882309F4A998662370
:1004400009F4A898089590E09BBD8ABD70E079BD3D
:1004500068BD089592B39F7C982B92BB88B38F7C24
:10046000682B68BB089598E09AB95E9A5D9BFECFB1
:100470008CB95E9BFECF1AB808951F93CF93DF937C
:10048000EC0110E002C01F5FEEDFFE01E10FF11D85
:1004900080818823C1F7DF91CF911F9108950F9339
:1004A0001F93DF93CF93CDB7DEB727970FB6F8949E
:1004B000DEBF0FBECDBF8E010F5F1F4FB8014AE0F8
:1004C00050E029D0C801D9DF27960FB6F894DEBFD7
:1004D0000FBECDBFCF91DF911F910F9108959091E5
:1004E000AC00980F8091AC008917E1F70895AA1B22
:1004F000BB1B51E107C0AA1FBB1FA617B70710F00F
:10050000A61BB70B881F991F5A95A9F78095909540
:10051000BC01CD010895FB019F01E8944230BCF07D
:100520004532ACF44A3029F497FB1EF4909581953E
:100530009F4F642F7727DBDF805D8A330CF0895D66
:100540008193CB010097A9F716F45DE251931082D5
:10055000C90100C0DC01FC01672F71917723E1F72D
:10056000329704C07C916D9370836291AE17BF0780
:08057000C8F30895F894FFCFD1
:100578000A0D204C696E654461746128206C6566BB
:1005880074207C20726967687420293A2000200052
:10059800202C20200001000100626364E5606100F6
:00000001FF
